:04000000020029329F
:03000B0002025995
:0100130032BA
:01001B0032B2
:030023000202C313
:08008200E4F50DF50E75080010
:0301940002002640
:030026000201973D
:10019700750931750A32750B33750C001206E312B7
:1001A70004B890000112036F902580120947D2AF5F
:1001B700751B25751C0E751D80751A017582001239
:1001C70006B2758202120AC4AF828F057E00757669
:1001D700648E778D828E83C007C006C005120DE935
:1001E700AB82D005D00674302BF50975760A757782
:1001F700008D828E83C006C005120DE975760A75DB
:100207007700120DB3AB82D005D00674302BF50AF8
:1002170075760A7577008D828E83120DB3AD827461
:10022700302DF50B750C00751B09751C00751D40ED
:10023700751A007582001206B2D007EF04F57575BE
:100247008202120AF012078D7401B508F8750800CA
:1002570080F3C020C0E0C0F0C082C083C007C006E2
:10026700C005C004C003C002C001C000C0D075D023
:1002770000850F8C85108A1207FE1205F412090EED
:10028700AE0DAF0E050DE4B50D02050EC3EE94E8F5
:10029700EF648094834008E4F50DF50E750801D0EE
:1002A700D0D000D001D002D003D004D005D006D0E2
:1002B70007D083D082D0F0D0E0D02032C020C0E079
:1002C700C0F0C082C083C007C006C005C004C00319
:1002D700C002C001C000C0D075D0001209A2D0D0A2
:1002E700D000D001D002D003D004D005D006D0076B
:1002F700D083D082D0F0D0E0D02032AE82AF837CE2
:10030700007D00C3EC9EED64808FF063F08095F074
:10031700501B7A6E7B00EA24FFF8EB34FFF9880262
:0E0327008903E84970F00CBC00D90D80D62285
:0D0E250068656C6C6F20776F726C64210043
:10033500AE82AF83C290D291D292D293C294BE01C3
:1003450014BF0011D280D281D282D283D284D285C9
:10035500D286D28722EE4F7010C280C281C282C27D
:0A03650083C284C285C286C28722CB
:06008A00750F0075100067
:10036F00AE82AF838E768F77757800757900901097
:10037F000075F00EE4120C3BAC82AD83AEF0FF754E
:10038F0076E8757703E4F578F5798C828D838EF0B6
:10039F00EF120BB9AC82AD83AEF0FFE4C39CFCE46B
:1003AF009DFD74019EFEE49FFF741C2CFCE43DFD3B
:1003BF00E43EE43F8D0F8C105389F0AE8943060164
:0D03CF008E89850F8C85108AD2A9D28C22D0
:100090007518007511FF7512FF7513FF7514FF7544
:0800A00015F97516C075170073
:1003DC00AE82AF83757610757727C007C006120BF7
:1003EC000DAC82AD83D006D007EC2432F582ED340F
:1003FC000EF583E493FD8D157576E87577038E8283
:10040C008F83C007C006120B0D75760A7577001224
:10041C000CA9AC82AD83D006D007EC2432F582ED6A
:10042C00340EF583E493FD8D147576647577008E28
:10043C00828F83C007C006120B0D75760A75770084
:10044C00120CA9AC82AD83D006D007EC2432F58215
:10045C00ED340EF583E493FD8D1375760A757700F4
:10046C008E828F83C007C006120B0D75760A7577C6
:10047C0000120CA9AC82AD83D006D007EC2432F567
:10048C0082ED340EF583E493FD8D1275760A757743
:10049C00008E828F83120CA9AE82AF83EE2432F5CC
:1004AC0082EF340EF583E493FF8F1122D293C29422
:1004BC0022AF828F057E0075760A8E778D828E83B1
:1004CC00C007C006C005120DB3AB82AC83D005D0FB
:1004DC0006EB2432F582EC340EF583E493FC8C119C
:1004EC0075760A7577008D828E83C006C005120D55
:1004FC00E975760A757700120DB3AB82AC83D00523
:10050C00D006EB2432F582EC340EF583E493FC8CAC
:10051C00127576647577008D828E83C006C00512C5
:10052C000DE975760A757700120DB3AB82AC83D0EA
:10053C0005D006EB2432F582EC340EF583E493FC03
:10054C008C137576E87577038D828E83C006C00593
:10055C00120DE975760A757700120DB3AB82AC8378
:10056C00D005D006EB2432F582EC340EF583E493FF
:10057C00FC8C147576107577278D828E83120DE99D
:10058C0075760A757700120DB3AD82AE83D007ED88
:10059C002432F582EE340EF583E493FE8E157E0044
:1005AC007D007C007576A07577867578018E798FC5
:1005BC00828E838DF0EC120D45AC82AD83AEF0FFD4
:1005CC0075760AE4F577F578F5798C828D838EF063
:1005DC00EF120CF6AC82AD83EC2432F582ED340EC6
:1005EC00F583E493FF8F16227580FFE51824FA40FB
:1005FC0064E51875F003A490060773020619020649
:10060C002502063102063D020649020655C292C277
:10061C0091C290051885118022C292C291D2900588
:10062C001885128022C292D291C29005188513802F
:10063C0022C292D291D290051885148022D292C2F5
:10064C0091C290051885158022D292C291D29075D4
:06065C0018008516802243
:100E3200C0F9A4B0999282F880908883C6A1868E68
:100662007580FFC290D291D295AF80C295EF20E7FC
:10067200F622AF82C007120662D007C290C2918FE3
:1006820080D295C29522AF82C007120662D007D2ED
:1006920090C2918F80D295C29522AF82E5197004E3
:1006A2008F06800474402FFE4306808E82020674F9
:1006B200851A1912069CAD1BAE1CAF1D8D828E834E
:1006C2008FF0120D97FC60188C820DBD00010EC0D8
:1006D20007C006C005120688D005D006D00780DC08
:1006E2002275823812067475820C1206747582069F
:0906F200120674758201020674FF
:1000A800E4F541F54275430175440175450175460E
:1000B80001754701754801754901754A01754B017C
:1000C800754C01754D01754E01754F0175500175DF
:1000D80051017552017555007556FF7557FF7558D2
:1000E800FF7559FF755AFF755BFF755CFF755DFFFE
:1000F800755EFF755FFF7560FF7561FF7562FF755F
:1001080063FF7564FF7565FF7521317522327523AC
:1001180033752424752534752635752736752825B5
:10012800752937752A38752B39752C28752D307532
:100138002E1B752F0D7530277531017532017533FA
:10014800017534017535017536017537017538014A
:10015800753901753A01753B01753C01753D0175AD
:080168003E01753F01754001E5
:1006FB00AF82BF30004016EF24C640118F057E003D
:10070B00ED24D0F541EE34FFF542020784BF240BF4
:10071B000541E4B541020542020784BF251485411A
:10072B007685427790000A120C1E858241858342A2
:10073B008047BF280B154174FFB541021542803924
:10074B00BF271775760A757700854182854283121C
:10075B000B0D858241858342801FBF0D08754100BB
:10076B007542148014BF1B11E4F541F542757603F5
:10077B00900E4275F08012097C854182854283027E
:10078B0003DC755300E553255325E0FEFD2443FCA4
:10079B00EE2431FB755400E5542CF9E5542BF88706
:1007AB00078602EFB502028026ED24312554F98726
:1007BB0007BF011BED24212554F98782C006C00514
:1007CB00C004C0031206FBD003D004D005D006EE44
:1007DB0024432554F9EE24312554F88607A7070541
:1007EB005474FC255450B0055374FC25534003023C
:1007FB00079022E555255525E02456F9E727FFA25A
:10080B00A4E4334FF7E555255525E0245604F9E7C5
:10081B0027FFA2A5E4334FF7E555255525E02456D0
:10082B002402F9E727FFA2A6E4334FF7E555255538
:10083B0025E024562403F9E727FFA2A7E433FE4F54
:10084B00F77F00E555255525E0FE24562FF9E7FDEA
:10085B00540F6002800AEE2431FD2FF87600801AC7
:10086B00EE24562FF9870553050F7C00BD0F0BBCEB
:10087B000008EE2431FE2FF876010FBF040040C3B1
:10088B000555535503E55524FC4029E55575F003F3
:10089B00A49008A0730208AC0208B10208B60208C3
:1008AB00BBD2A0C2A322D2A3C2A222D2A2C2A12295
:0508BB00D2A1C2A02241
:040E42003132330016
:1001700075720075660E75670C75680D7569097581
:100180006A0B756B03756C07756D06E4F56EF56F9C
:04019000F570F571A0
:1008C000AC82AD83AEF0FFC2AF8C768D778E788F21
:1008D00079900FECE4F5F0120C3BAC82AD83AEF0F6
:1008E000FF757668757701E4F578F5798C828D83EC
:1008F0008EF0EF120BB985826E85836F85F070F5EF
:1009000071D2AF22E4F56EF56FF570F57122E56EE8
:10091000456F457045716027E59054F0FFE57224FE
:1009200066F9E74FF5900572537207156E74FFB5BF
:100930006E0C156FB56F071570B57002157122AE8C
:100940009043060F8E9022AE82AF837598505389E4
:100950000FAC894304208C898E768F77757800756B
:100960007900907080E4F5F0120D45AC82C3E49CF0
:10097000F58D858D8BC2ABD2ACD28E22AD82AE838B
:10098000AFF0AC768C031CEB6017C2998D828E831E
:100990008FF0120D97F599A3AD82AE832099E58073
:1009A000FB221098028000A29922D2B6D2B7000092
:1009B0000000C2B600000000C2B722C2B6C2B70033
:1009C000000000D2B700000000D2B60000000022F4
:1009D000AF82BF01047582FE22BF02047582FD2230
:1009E000BF04047582FB22BF08047582F722BF1082
:1009F000047582EF22BF20047582DF22BF40047598
:100A000082BF22BF800375827F22AF827E80EF5E2D
:100A10007004C2B68002D2B600000000D2B7000057
:100A20000000C2B7EEC313FE70E4D2B600000000AF
:100A3000D2B7A2B6E433FF00000000C2B7BF010482
:100A40007582002275820122D2B67F8000000000EC
:100A5000D2B720B6108F82C0071209D0AE82D0075D
:100A6000EE52738003EF427300000000C2B7EFC381
:100A700013FF70D8D2B600000000D2B7000000000B
:100A8000C2B785738222D2B67F8000000000D2B741
:100A900020B6108F82C0071209D0AE82D007EE5266
:100AA000748003EF427400000000C2B7EFC313FF6D
:100AB00070D8C2B600000000D2B700000000C2B774
:100AC00085748222AF82C0071209AA7582A0120A19
:100AD0000AD0078F82120A0A1209AA7582A1120A85
:100AE0000A120A48AF82C0071209BBD0078F8222C0
:100AF000AF82C0071209AA7582A0120A0AD0078F16
:100B000082120A0A857582120A0A0209BB7A10E467
:100B1000FBFCE58225E0F582E58333F583EB33FBCF
:100B2000EC33FCEB9576F5F0EC95774006FCABF0FA
:100B3000438201DADD22F9E576457745784579602B
:100B4000777800C308E57920E73BE57625E0F57680
:100B5000E57733F577E57833F578E57933F579E5B9
:100B6000829576E5839577E5F09578E9957950D487
:100B7000C3E57913F579E57813F578E57713F5771B
:100B8000E57613F576E5829576FCE5839577FDE5C8
:100B9000F09578FEE995794007F98EF08D838C8287
:100BA000C3E57913F579E57813F578E57713F577EB
:100BB000E57613F576D8CEE922FB7A20E4FCFDFE3B
:100BC000FFE5822582F582E58333F583E5F033F591
:100BD000F0EB33FB4017DAE98042E5822582F582AB
:100BE000E58333F583E5F033F5F0EB33FBEC33FCD1
:100BF000ED33FDEE33FEEF33FFEC9576ED9577EEBA
:100C00009578EF95794013EC9576FCED9577FDEEB0
:0E0C10009578FEEF9579FF438201DABEEB2264
:06005800E478FFF6D8FD7C
:100036007900E94400601B7A00900E46780175A0AD
:1000460000E493F2A308B8000205A0D9F4DAF27529
:02005600A0FF09
:100C1E00E5828576F0A4C582C0F08577F0A4D0F089
:100C2E0025F0C5838576F0A42583F58322AAF0FBF3
:100C3E00E5828576F0A4FCADF0E5838576F0A42DF3
:100C4E00FDE435F0FEE5828577F0A42DFDE5F03E5E
:100C5E00FEE433FFEA8576F0A42EFEE5F03FFFE5D5
:100C6E00838577F0A42EFEE5F03FFFE5828578F0D0
:100C7E00A42EFEE5F03FFFEB8576F0A42FFFEA856C
:100C8E0077F0A42FFFE5838578F0A42FFFE582850A
:100C9E0079F0A42F8EF08D838C8222E576457760D5
:100CAE00467A01E57625E0F576E577334012F5775D
:100CBE00E5829576E583957740030A80E6C3E5776E
:100CCE0013F577E57613F576C3E5829576F5F0E5BF
:100CDE008395774005F58385F082C3E57713F57725
:080CEE00E57613F576DAE12248
:10005E007800E84400600A790175A000E4F309D83D
:10006E00FC7800E84400600C7900900001E4F0A3F5
:04007E00D8FCD9FAD7
:100CF600F9C2D530E715D2D5E4C39582F582E495DD
:100D060083F583E495F0F5F0E499F9E57930E71594
:100D1600E4C39576F576E49577F577E49578F578F6
:100D2600E49579F579E9120B3630D512E4C395824C
:100D3600F582E49583F583E495F0F5F0E49922FBDA
:100D4600C2D530E715D2D5E4C39582F582E4958302
:100D5600F583E495F0F5F0E49BFBE57930E717B20F
:100D6600D5E4C39576F576E49577F577E49578F549
:100D760078E49579F579EB120BB930D513FBE4C31A
:100D86009582F582E49583F583E495F0F5F0E49B8E
:010D9600223A
:0D002900758179120E21E582600302002628
:100D970020F71430F6148883A88220F507E6A88385
:100DA70075830022E280F7E49322E022C2D5E5832F
:100DB70030E70DD2D5E4C39582F582E49583F583B8
:100DC700E57730E70BE4C39576F576E49577F57725
:100DD700120CA930D50BE4C39582F582E49583F50F
:100DE7008322C2D5E58330E70DD2D5E4C39582F5DA
:100DF70082E49583F583E57730E70DB2D5E4C395B3
:100E070076F576E49577F577120B0D30D50BE4C3BD
:0E0E17009582F582E49583F583227582002290
:00000001FF
