:0400000002001132B7
:03000B000201727D
:07006A00E4F509F50AF508B1
:0301570002000E95
:03000E0002015A92
:10015A001202F29000011201D7D2AF120803740101
:10016A00B508F875080080F3C020C0E0C0F0C0826E
:10017A00C083C007C006C005C004C003C002C001D6
:10018A00C000C0D075D000850B8C850C8AAE09AF33
:10019A000A0509E4B50902050AC3EE94E8EF9403D7
:1001AA004008E4F509F50A7508011208931203F7E5
:1001BA00D0D0D000D001D002D003D004D005D006D0
:0D01CA00D007D083D082D0F0D0E0D020321A
:06007100750B00750C0088
:1001D700AE82AF838E148F157516007517009010B9
:1001E7000075F00EE4120AEBAC82AD83AEF0FF753A
:1001F70014E8751503E4F516F5178C828D838EF0D8
:10020700EF120A01AC82AD83AEF0FFE4C39CFCE4BD
:100217009DFD74019EFEE49FFF741C2CFCE43DFDD4
:10022700E43EE43F8D0B8C0C5389F0AE8943060105
:0D0237008E89850B8C850C8AD2A9D28C2271
:100077007538007521C07522F97523A47524B075EC
:1000870025997526927527827528F8752980752A0E
:1000970090752B88752C83752DC6752EA1752F86A7
:1000A70075308E7531FF7532FF7533FF7534FF7507
:0800B70035F97536C0753700FC
:10024400AE82AF83751410751527C007C006120956
:1002540055AC82D006D007EC2421F987058D35757D
:1002640014E87515038E828F83C007C006120955E2
:1002740075140A751500120A9EAC82D006D007ECDC
:100284002421F987058D347514647515008E828FC9
:1002940083C007C00612095575140A751500120AA1
:1002A4009EAC82D006D007EC2421F987058D3375E6
:1002B400140A7515008E828F83C007C00612095573
:1002C40075140A751500120A9EAC82D006D007EC8C
:1002D4002421F987058D3275140A7515008E828FD5
:1002E40083120A9EE5822421F987078F3122D29353
:1002F400C29422AF828F057E0075140A8E158D82FA
:100304008E83C007C006C005120C16AB82D005D080
:1003140006EB2421F987048C3175140A7515008DB8
:10032400828E83C006C005120C4C75140A75150024
:10033400120C16AB82D005D006EB2421F987048C6D
:10034400327514647515008D828E83C006C0051243
:100354000C4C75140A751500120C16AB82D005D01E
:1003640006EB2421F987048C337514E87515038D85
:10037400828E83C006C005120C4C75140A751500D4
:10038400120C16AB82D005D006EB2421F987048C1D
:10039400347514107515278D828E83120C4C7514C8
:1003A4000A751500120C16AD82D007ED2421F987C9
:1003B400068E357E007D007C007514A0751586754B
:1003C40016018E178F828E838DF0EC120BA8AC82EF
:1003D400AD83AEF0FF75140AE4F515F516F5178C28
:1003E400828D838EF0EF120B59E5822421F9870761
:1003F4008F36227580FFE53824FA4064E53875F0BD
:1004040003A490040A7302041C02042802043402A4
:10041400044002044C020458C292C291C2900538AE
:1004240085318022C292C291D290053885328022D1
:10043400C292D291C290053885338022C292D29161
:10044400D290053885348022D292C291C290053868
:1004540085358022D292C291D2907538008536803B
:1004640022E5006035750000E500C4540F2421F92D
:1004740087078F36AE0053060FEE2421F987078FC6
:1004840035E502C4540F2421F987078F32AE025395
:10049400060FEE2421F987078F3122D2B6D2B70096
:1004A400000000C2B600000000C2B722C2B6C2B744
:1004B40000000000D2B700000000D2B60000000027
:1004C40022AF82BF01047582FE22BF02047582FD41
:1004D40022BF04047582FB22BF08047582F722BF81
:1004E40010047582EF22BF20047582DF22BF40040E
:1004F4007582BF22BF800375827F22AF827E80EF28
:100504005E7004C2B68002D2B600000000D2B7000A
:10051400000000C2B7EEC313FE70E4D2B6000000C0
:1005240000D2B7A2B6E433FF00000000C2B7BF0197
:10053400047582002275820122D2B67F80000000F9
:1005440000D2B720B6108F82C0071204C5AE82D085
:1005540007EE520D8003EF420D00000000C2B7EF1A
:10056400C313FF70D8D2B600000000D2B700000059
:1005740000C2B7850D8222D2B67F8000000000D26F
:10058400B720B6108F82C0071204C5AE82D007EE22
:10059400520E8003EF420E00000000C2B7EFC313F7
:1005A400FF70D8C2B600000000D2B700000000C23D
:1005B400B7850E8222AF82C00712049F7582A012F3
:1005C40004FFD0078F821204FF12049F7582A112C8
:1005D40004FF12053DAF82C0071204B0D0078F821A
:1005E40022AF82C00712049F7582A01204FFD007B5
:1005F4008F821204FF850F821204FF0204B0AD82C1
:10060400AE83AFF0C007C006C00512049F7582A078
:100614001204FFE582D005D006D0077011C007C0D0
:1006240006C0051204B0D005D006D00780D68510C8
:1006340082C007C006C0051204FF12049F7582A180
:100644001204FFD005D006D007AC11EC24FE5027CD
:10065400C007C006C005C00412057BAB82D004D01D
:1006640005D006D0078D828E838FF0EB120A66A325
:10067400AD82AE831C80D4C007C006C00512053D00
:10068400AC82D005D006D0078D828E838FF0EC1219
:100694000A660204B0AD82AE83AFF0AC12AB138B2A
:1006A400021BEA700122C007C006C005C004C003D3
:1006B40012049F7582A01204FFE582D003D004D0F7
:1006C40005D006D00760DF8C820CC007C006C005C9
:1006D400C004C0031204FFD003D004D005D006D058
:1006E400078D828E838FF0120BFAFAA3AD82AE834C
:1006F4008A82C007C006C005C004C0031204FF12EA
:1007040004B0D003D004D005D006D0070206A3AFAE
:1007140082C00712049F7582901204FFE582D007FD
:1007240070071204B0758200224307408F821204BE
:10073400FF12049F7582911204FF12057B12053D7E
:10074400AF82C0071204B0D0078F8222AF82C007E5
:1007540012049F7582901204FFE582D00770030291
:1007640004B0758240C0071204FFD0078F821204C0
:04077400FF0204B0CC
:1000BF00E4F549F54A754B01754C01754D01754EC7
:1000CF0001754F017550017551017552017553013D
:1000DF0075540175550175560175570175580175A0
:1000EF005901755A01755E00755FFF7560FF756187
:1000FF00FF7562FF7563FF7564FF7565FF7566FFBA
:10010F007567FF7568FF7569FF756AFF756BFF751A
:10011F006CFF756DFF756EFF753901753A01753B93
:10012F0001753C01753D01753E01753F017540013B
:10013F00754101754201754301754401754501759E
:08014F004601754701754801E6
:10077800AF82BF30004016EF24C640118F057E00BF
:10078800ED24D0F549EE34FFF54A0207F4BF240AF8
:100798000549E4B54956054A8052BF2514854914D0
:1007A800854A1590000A120A8185824985834A8004
:1007B8003BBF280B154974FFB54902154A802DBF68
:1007C800271775140A751500854982854A83120909
:1007D8005585824985834A8013BF0D087549007580
:1007E8004A148008BF1B05E4F549F54A8549828506
:1007F8004A83120244854982020750755B00E55B13
:1008080075F004A42488FD740C35F0FEE55B255BC7
:1008180025E0FCFB244BFAEC2439F55D755C00C03F
:1008280003E55C2AF9E55C255DF887078603EFB5E3
:100838000304D0038031D003EB2439255CF9870702
:10084800BF0124E55C2DF582E43EF583E493F5824F
:10085800C006C005C004C003C002120778D002D089
:1008680003D004D005D006EC244B255CF9EC2439E0
:10087800255CF88607A707055C74FC255C50A00575
:100888005B74FC255B400302080622E55E255E25B5
:10089800E0245FF9E727FFA2A4E4334FF7E55E25DC
:1008A8005E25E0245F04F9E727FFA2A5E4334FF7AC
:1008B800E55E255E25E0245F2402F9E727FFA2A66E
:1008C800E4334FF7E55E255E25E0245F2403F9E76E
:1008D80027FFA2A7E433FE4FF77F00E55E255E25DC
:1008E800E0FE245F2FF9E7FD540F6002800AEE2432
:1008F80039FD2FF87600801AEE245F2FF98705530B
:10090800050F7C00BD0F0BBC0008EE2439FE2FF844
:1009180076010FBF040040C3055E535E03E55E2405
:10092800FC4029E55E75F003A4900935730209417E
:1009380002094602094B020950D2A0C2A322D2A33F
:0D094800C2A222D2A2C2A122D2A1C2A0222C
:100C8800313233243435362537383928301B0D278F
:100955007A10E4FBFCE58225E0F582E58333F58337
:10096500EB33FBEC33FCEB9514F5F0EC95154006F9
:10097500FCABF0438201DADD22F9E5144515451695
:10098500451760777800C308E51720E73BE5142590
:10099500E0F514E51533F515E51633F516E51733CA
:1009A500F517E5829514E5839515E5F09516E99516
:1009B5001750D4C3E51713F517E51613F516E51506
:1009C50013F515E51413F514E5829514FCE58395E7
:1009D50015FDE5F09516FEE995174007F98EF08DA2
:1009E500838C82C3E51713F517E51613F516E51580
:1009F50013F515E51413F514D8CEE922FB7A20E496
:100A0500FCFDFEFFE5822582F582E58333F583E56E
:100A1500F033F5F0EB33FB4017DAE98042E5822548
:100A250082F582E58333F583E5F033F5F0EB33FBAF
:100A3500EC33FCED33FDEE33FEEF33FFEC9514EDB7
:100A45009515EE9516EF95174013EC9514FCED955D
:100A550015FDEE9516FEEF9517FF438201DABEEB05
:010A6500226E
:06004000E478FFF6D8FD94
:10001E007900E94400601B7A00900C98780175A075
:10002E0000E493F2A308B8000205A0D9F4DAF27541
:02003E00A0FF21
:100A660020F71130F6138883A88220F509F6A883AB
:100A76007583002280FEF280F5F022E5828514F06F
:100A8600A4C582C0F08515F0A4D0F025F0C58385F5
:100A960014F0A42583F58322E514451560467A01F2
:100AA600E51425E0F514E515334012F515E58295B4
:100AB60014E583951540030A80E6C3E51513F5157D
:100AC600E51413F514C3E5829514F5F0E583951541
:100AD6004005F58385F082C3E51513F515E5141376
:100AE600F514DAE122AAF0FBE5828514F0A4FCAD48
:100AF600F0E5838514F0A42DFDE435F0FEE582854E
:100B060015F0A42DFDE5F03EFEE433FFEA8514F072
:100B1600A42EFEE5F03FFFE5838515F0A42EFEE545
:100B2600F03FFFE5828516F0A42EFEE5F03FFFEBD1
:100B36008514F0A42FFFEA8515F0A42FFFE5838521
:100B460016F0A42FFFE5828517F0A42F8EF08D8373
:030B56008C82226C
:100046007800E84400600A790175A000E4F309D855
:10005600FC7800E84400600C7900900001E4F0A30D
:04006600D8FCD9FAEF
:100B5900F9C2D530E715D2D5E4C39582F582E4957B
:100B690083F583E495F0F5F0E499F9E51730E71595
:100B7900E4C39514F514E49515F515E49516F516E1
:100B8900E49517F517E912097E30D512E4C3958269
:100B9900F582E49583F583E495F0F5F0E49922FB79
:100BA900C2D530E715D2D5E4C39582F582E49583A1
:100BB900F583E495F0F5F0E49BFBE51730E717B210
:100BC900D5E4C39514F514E49515F515E49516F5D2
:100BD90016E49517F517EB120A0130D513FBE4C398
:100BE9009582F582E49583F583E495F0F5F0E49B2D
:010BF90022D9
:0D00110075816E120C84E582600302000E02
:100BFA0020F71430F6148883A88220F507E6A88324
:100C0A0075830022E280F7E49322E022C2D5E583CD
:100C1A0030E70DD2D5E4C39582F582E49583F58356
:100C2A00E51530E70BE4C39514F514E49515F515AD
:100C3A00120A9E30D50BE4C39582F582E49583F5BA
:100C4A008322C2D5E58330E70DD2D5E4C39582F578
:100C5A0082E49583F583E51530E70DB2D5E4C395B3
:100C6A0014F514E49515F51512095530D50BE4C39E
:0E0C7A009582F582E49583F58322758200222F
:00000001FF
