:0400000002001132B7
:03000B000200BF31
:07006A00E4F50AF50BC200EA
:0300920002000E5B
:03000E0002009558
:20009500120269900001120120D2AF12065010000280FB90000875F0401206738508828538
:2000B500098312018D12065080E4C021C0E0C0F0C082C083C007C006C005C004C003C002E2
:2000D500C001C000C0D075D000850C8C850D8AAE0AAF0B050AE4B50A02050BC3EE94E8EF2A
:2000F50094034007E4F50AF50BD2001203A5D0D0D000D001D002D003D004D005D006D00762
:0B011500D083D082D0F0D0E0D02132A7
:06007100750C00750D0086
:20012000AE82AF838E228F2375240075250090100075F00EE412085FAC82AD83AEF0FF75E8
:2001400022E8752303E4F524F5258C828D838EF0EF120792AC82AD83AEF0FFE4C39CFCE48F
:200160009DFD74019EFEE49FFF741C2CFCE43DFDE43EE43F8D0C8C0D5389F0AE89430601B8
:0D0180008E89850C8C850D8AD2A9D28C2227
:18007700751500750EFF750FFF7510FF7511FF7512F97513C075140088
:20018D00AE82AF83752210752327C007C0061206E6AC82AD83D006D007EC24E0F582ED346C
:2001AD0009F583E493FD8D127522E87523038E828F83C007C0061206E675220A752300128C
:2001CD000812AC82AD83D006D007EC24E0F582ED3409F583E493FD8D117522647523008EB1
:2001ED00828F83C007C0061206E675220A752300120812AC82AD83D006D007EC24E0F582FC
:20020D00ED3409F583E493FD8D1075220A7523008E828F83C007C0061206E675220A7523FF
:20022D0000120812AC82AD83D006D007EC24E0F582ED3409F583E493FD8D0F75220A752328
:20024D00008E828F83120812AE82AF83EE24E0F582EF3409F583E493FF8F0E22D293C294E4
:20026D0022AF828F057E0075220A8E238D828E83C007C006C00512096EAB82AC83D005D0BE
:20028D0006EB24E0F582EC3409F583E493FC8C0E75220A7523008D828E83C006C005120938
:2002AD00A475220A75230012096EAB82AC83D005D006EB24E0F582EC3409F583E493FC8CBE
:2002CD000F7522647523008D828E83C006C0051209A475220A75230012096EAB82AC83D017
:2002ED0005D006EB24E0F582EC3409F583E493FC8C107522E87523038D828E83C006C0053B
:20030D001209A475220A75230012096EAB82AC83D005D006EB24E0F582EC3409F583E493CA
:20032D00FC8C117522107523278D828E831209A475220A75230012096EAD82AE83D007EDEC
:20034D0024E0F582EE3409F583E493FE8E127E007D007C007522A07523867524018E258FB5
:20036D00828E838DF0EC12091CAC82AD83AEF0FF75220AE4F523F524F5258C828D838EF0D6
:20038D00EF1208CDAC82AD83EC24E0F582ED3409F583E493FF8F13227580FFE51524FA408D
:2003AD0064E51575F003A49003B8730203CA0203D60203E20203EE0203FA020406C292C263
:2003CD0091C2900515850E8022C292C291D2900515850F8022C292D291C29005158510804D
:2003ED0022C292D291D290051585118022D292C291C290051585128022D292C291D2907579
:20040D00150085138022E5166047751600E517C4540F9009E093FF8F13AE1753060F7F00D7
:20042D00EE24E0F582EF3409F583E493FF8F12E519C4540F9009E093FF8F0FAE1953060F8E
:12044D007F00EE24E0F582EF3409F583E493FF8F0E22DC
:1009E000C0F9A4B0999282F880908883C6A1868EBF
:03008F00751600E3
:20045F00D2B353890FAE894306108E89C28EC2ABD28AD2AA22758D00758B00D28E30B30664
:20047F0074C0258D50F7C28EAF8D7E00AC8B7D00EC2EF582ED3FF58322758D00758B00D247
:20049F008E20B30674C0258D50F7C28EAF8D7E00AC8B7D00EC2EF582ED3FF58322120498E6
:2004BF00AE82AF83C3EE9499EF941E400874339E74229F5003C28B22120474AE82AF83C309
:2004DF00EE9466EF940E4007E49E74129F5003C28B227F007E00C007C006120498AC82ADC1
:2004FF0083D006D007C3EC9439ED9401400874CE9C74029D5003C28B22C007C0061204749D
:20051F00AC82AD83D006D007C374399C74019D5011C3EC94CEED94025008E51BC313F51B60
:20053F008023C374419C74059D5017C3EC94D7ED9406500EE51BC313FD7C004305808D1BAA
:20055F008003C28B220EBE0800408BEF2417F8A61B0FBF040050030204F3751601C28B22EF
:20057F00AF820000000000000000EF14FEFF70F222AF82BF01047582FE22BF02047582FDE2
:20059F0022BF04047582FB22BF08047582F722BF10047582EF22BF20047582DF22BF4004AB
:2005BF007582BF22BF800375827F22C2AFC2B275823212057FD2B275820612057FA2B2E477
:2005DF0033FF30B2FDD2AF8F8222AF82C2AF7E01C2B20000EF5E7004C2B28002D2B2758270
:2005FF0006C007C00612057FD006D007D2B28E05ED2DFE70DBD2AF22C2AF7F01C2B2000084
:20061F00D2B2000020B2108F82C007120590AE82D007EE521C8003EF421C758206C00712CD
:20063F00057FD0078F06EE2EFF70D1D2AF851C82221205CAE582FE70107582CCC006120523
:20065F00E97582441205E9D006EE70047582012275820022AD82AE83AFF0C007C006C0059B
:20067F001205CAAC82D005D006D007ECFB704D7582CCC007C006C005C0031205E97582BE99
:20069F001205E9120617AC82D003C004C003120617AA82D003D004D005D006D0078A0189EC
:2006BF000279008C007C00E829F9EC3AFA8D828E838FF0E91207F7A3EA1207F7EB70047565
:0706DF008201227582002256
:2006E6007A10E4FBFCE58225E0F582E58333F583EB33FBEC33FCEB9522F5F0EC95234006F4
:09070600FCABF0438201DADD22B4
:20070F00F9E52245234524452560777800C308E52520E73BE52225E0F522E52333F523E5CE
:20072F002433F524E52533F525E5829522E5839523E5F09524E9952550D4C3E52513F52556
:20074F00E52413F524E52313F523E52213F522E5829522FCE5839523FDE5F09524FEE995B0
:20076F00254007F98EF08D838C82C3E52513F525E52413F524E52313F523E52213F522D8FE
:03078F00CEE9228E
:20079200FB7A20E4FCFDFEFFE5822582F582E58333F583E5F033F5F0EB33FB4017DAE980A0
:2007B20042E5822582F582E58333F583E5F033F5F0EB33FBEC33FCED33FDEE33FEEF33FFCF
:2007D200EC9522ED9523EE9524EF95254013EC9522FCED9523FDEE9524FEEF9525FF4382C9
:0507F20001DABEEB225C
:06004000E478FFF6D8FD94
:20001E007900E94400601B7A009009F0780175A000E493F2A308B8000205A0D9F4DAF2758F
:02003E00A0FF21
:1B07F70020F71130F6138883A88220F509F6A8837583002280FEF280F5F02201
:20081200E522452360467A01E52225E0F522E523334012F523E5829522E583952340030AE3
:2008320080E6C3E52313F523E52213F522C3E5829522F5F0E58395234005F58385F082C3BC
:0D085200E52313F523E52213F522DAE12258
:20085F00AAF0FBE5828522F0A4FCADF0E5838522F0A42DFDE435F0FEE5828523F0A42DFD08
:20087F00E5F03EFEE433FFEA8522F0A42EFEE5F03FFFE5838523F0A42EFEE5F03FFFE58284
:20089F008524F0A42EFEE5F03FFFEB8522F0A42FFFEA8523F0A42FFFE5838524F0A42FFF42
:0E08BF00E5828525F0A42F8EF08D838C822299
:200046007800E84400600A790175A000E4F309D8FC7800E84400600C7900900001E4F0A3B8
:04006600D8FCD9FAEF
:2008CD00F9C2D530E715D2D5E4C39582F582E49583F583E495F0F5F0E499F9E52530E71505
:2008ED00E4C39522F522E49523F523E49524F524E49525F525E912070F30D512E4C395826E
:0F090D00F582E49583F583E495F0F5F0E4992203
:20091C00FBC2D530E715D2D5E4C39582F582E49583F583E495F0F5F0E49BFBE52530E717AD
:20093C00B2D5E4C39522F522E49523F523E49524F524E49525F525EB12079230D513FBE4F0
:12095C00C39582F582E49583F583E495F0F5F0E49B22D5
:0D0011007581251209DCE582600302000EF6
:20096E00C2D5E58330E70DD2D5E4C39582F582E49583F583E52330E70BE4C39522F522E473
:16098E009523F52312081230D50BE4C39582F582E49583F583227C
:2009A400C2D5E58330E70DD2D5E4C39582F582E49583F583E52330E70DB2D5E4C39522F5BA
:1809C40022E49523F5231206E630D50BE4C39582F582E49583F583226C
:0409DC0075820022FE
:00000001FF
