:0400000002001932AF
:03000B000200AF41
:030013000200F4F4
:0300930002001652
:030016000200964F
:2000960012027C900001120133120472D2AF9000001201A012042680FBC020C0E0C0F0C0F0
:2000B60082C083C007C006C005C004C003C002C001C000C0D075D00085088C85098A12032E
:2000D600B8D0D0D000D001D002D003D004D005D006D007D083D082D0F0D0E0D02032C020FF
:2000F600C0E0C0F0C082C083C007C006C005C004C003C002C001C000C0D075D0001204CF3F
:1D011600D0D0D000D001D002D003D004D005D006D007D083D082D0F0D0E0D0203259
:060072007508007509008D
:20013300AE82AF838E188F19751A00751B0090100075F00EE41206F0AC82AD83AEF0FF756E
:2001530018E8751903E4F51AF51B8C828D838EF0EF12063EAC82AD83AEF0FFE4C39CFCE4F9
:200173009DFD74019EFEE49FFF741C2CFCE43DFDE43EE43F8D088C095389F0AE89430601AD
:0D0193008E8985088C85098AD2A9D28C221C
:18007800751100750AFF750BFF750CFF750DFF750EF9750FC0751000A7
:2001A000AE82AF83751810751927C007C006120592AC82AD83D006D007EC2471F582ED3431
:2001C00008F583E493FD8D0E7518E87519038E828F83C007C00612059275180A75190012FB
:2001E00006A3AC82AD83D006D007EC2471F582ED3408F583E493FD8D0D7518647519008E97
:20020000828F83C007C00612059275180A7519001206A3AC82AD83D006D007EC2471F58231
:20022000ED3408F583E493FD8D0C75180A7519008E828F83C007C00612059275180A75196E
:20024000001206A3AC82AD83D006D007EC2471F582ED3408F583E493FD8D0B75180A75190E
:20026000008E828F831206A3AE82AF83EE2471F582EF3408F583E493FF8F0A22D293C294B6
:2002800022AF828F057E0075180A8E198D828E83C007C006C0051207FFAB82AC83D005D030
:2002A00006EB2471F582EC3408F583E493FC8C0A75180A7519008D828E83C006C0051208AE
:2002C0003575180A7519001207FFAB82AC83D005D006EB2471F582EC3408F583E493FC8C0F
:2002E0000B7518647519008D828E83C006C00512083575180A7519001207FFAB82AC83D011
:2003000005D006EB2471F582EC3408F583E493FC8C0C7518E87519038D828E83C006C005AF
:2003200012083575180A7519001207FFAB82AC83D005D006EB2471F582EC3408F583E4931C
:20034000FC8C0D7518107519278D828E8312083575180A7519001207FFAD82AE83D007EDE6
:200360002471F582EE3408F583E493FE8E0E7E007D007C007518A0751986751A018E1B8F3E
:20038000828E838DF0EC1207ADAC82AD83AEF0FF75180AE4F519F51AF51B8C828D838EF05C
:2003A000EF12075EAC82AD83EC2471F582ED3408F583E493FF8F0F227580FFE51124FA4062
:2003C00064E51175F003A49003CB730203DD0203E90203F502040102040D020419C292C2CD
:2003E00091C2900511850A8022C292C291D2900511850B8022C292D291C2900511850C8052
:2004000022C292D291D2900511850D8022D292C291C2900511850E8022D292C291D2907575
:200420001100850F8022E5126047751200E513C4540F90087193FF8F0FAE1353060F7F0050
:20044000EE2471F582EF3408F583E493FF8F0EE515C4540F90087193FF8F0BAE1553060F6B
:120460007F00EE2471F582EF3408F583E493FF8F0A223D
:10087100C0F9A4B0999282F880908883C6A1868E2F
:03009000751200E6
:20047200D2B353890FAE894306108E89C28EC2ABD28AD2AA22758D00758B00D28E30B30651
:2004920074C0258D50F7C28EAF8D7E00AC8B7D00EC2EF582ED3FF58322758D00758B00D234
:2004B2008E20B30674C0258D50F7C28EAF8D7E00AC8B7D00EC2EF582ED3FF583221204ABC0
:2004D200AE82AF83C3EE9499EF941E400874339E74229F5003C28B22120487AE82AF83C3E3
:2004F200EE9466EF940E4007E49E74129F5003C28B227F007E00C007C0061204ABAC82AD9B
:2005120083D006D007C3EC9439ED9401400874CE9C74029D5003C28B22C007C00612048776
:20053200AC82AD83D006D007C374399C74019D5011C3EC94CEED94025008E517C313F51755
:200552008023C374419C74059D5017C3EC94D7ED9406500EE517C313FD7C004305808D179F
:200572008003C28B220EBE0800408BEF2413F8A6170FBF04005003020506751201C28B22D4
:200592007A10E4FBFCE58225E0F582E58333F583EB33FBEC33FCEB9518F5F0EC951940065D
:0905B200FCABF0438201DADD220A
:2005BB00F9E5184519451A451B60777800C308E51B20E73BE51825E0F518E51933F519E57E
:2005DB001A33F51AE51B33F51BE5829518E5839519E5F0951AE9951B50D4C3E51B13F51B10
:2005FB00E51A13F51AE51913F519E51813F518E5829518FCE5839519FDE5F0951AFEE99560
:20061B001B4007F98EF08D838C82C3E51B13F51BE51A13F51AE51913F519E51813F518D8AD
:03063B00CEE922E3
:20063E00FB7A20E4FCFDFEFFE5822582F582E58333F583E5F033F5F0EB33FB4017DAE980F5
:20065E0042E5822582F582E58333F583E5F033F5F0EB33FBEC33FCED33FDEE33FEEF33FF24
:20067E00EC9518ED9519EE951AEF951B4013EC9518FCED9519FDEE951AFEEF951BFF43826E
:05069E0001DABEEB22B1
:06004800E478FFF6D8FD8C
:200026007900E94400601B7A00900881780175A000E493F2A308B8000205A0D9F4DAF275F7
:02004600A0FF19
:2006A300E518451960467A01E51825E0F518E519334012F519E5829518E583951940030AA4
:2006C30080E6C3E51913F519E51813F518C3E5829518F5F0E58395194005F58385F082C369
:0D06E300E51913F519E51813F518DAE122F1
:2006F000AAF0FBE5828518F0A4FCADF0E5838518F0A42DFDE435F0FEE5828519F0A42DFD97
:20071000E5F03EFEE433FFEA8518F0A42EFEE5F03FFFE5838519F0A42EFEE5F03FFFE58208
:20073000851AF0A42EFEE5F03FFFEB8518F0A42FFFEA8519F0A42FFFE583851AF0A42FFFDA
:0E075000E582851BF0A42F8EF08D838C822213
:20004E007800E84400600A790175A000E4F309D8FC7800E84400600C7900900001E4F0A3B0
:04006E00D8FCD9FAE7
:20075E00F9C2D530E715D2D5E4C39582F582E49583F583E495F0F5F0E499F9E51B30E7157F
:20077E00E4C39518F518E49519F519E4951AF51AE4951BF51BE91205BB30D512E4C3958284
:0F079E00F582E49583F583E495F0F5F0E4992274
:2007AD00FBC2D530E715D2D5E4C39582F582E49583F583E495F0F5F0E49BFBE51B30E71728
:2007CD00B2D5E4C39518F518E49519F519E4951AF51AE4951BF51BEB12063E30D513FBE406
:1207ED00C39582F582E49583F583E495F0F5F0E49B2246
:0D00190075812012086DE58260030200165B
:2007FF00C2D5E58330E70DD2D5E4C39582F582E49583F583E51930E70BE4C39518F518E402
:16081F009519F5191206A330D50BE4C39582F582E49583F5832271
:20083500C2D5E58330E70DD2D5E4C39582F582E49583F583E51930E70DB2D5E4C39518F53E
:1808550018E49519F51912059230D50BE4C39582F582E49583F583224F
:04086D00758200226E
:00000001FF
