:0400000002001132B7
:03000B000200E40C
:07006A00E4F509F50AF508B1
:0300BF0002000E2E
:03000E000200C22B
:1000C200120261900001120146D2AF7401B508FB21
:1000D2007508007582001206827E008E831201B3BB
:1000E20080E9C020C0E0C0F0C082C083C007C00663
:1000F200C005C004C003C002C001C000C0D075D09A
:1001020000850B8C850C8AAE09AF0A0509E4B50996
:1001120002050AC3EE94E8EF94034008E4F509F5FA
:100122000A750801120366D0D0D000D001D002D0E7
:1001320003D004D005D006D007D083D082D0F0D02F
:04014200E0D02032B7
:06007100750B00750C0088
:10014600AE82AF838E148F1575160075170090104A
:100156000075F00EE4120838AC82AD83AEF0FF7580
:1001660014E8751503E4F516F5178C828D838EF069
:10017600EF12076BAC82AD83AEF0FFE4C39CFCE4E8
:100186009DFD74019EFEE49FFF741C2CFCE43DFD66
:10019600E43EE43F8D0B8C0C5389F0AE8943060197
:0D01A6008E89850B8C850C8AD2A9D28C2203
:100077007538007521C07522F97523A47524B075EC
:1000870025997526927527827528F8752980752A0E
:1000970090752B88752C83752DC6752EA1752F86A7
:1000A70075308E7531FF7532FF7533FF7534FF7507
:0800B70035F97536C0753700FC
:1001B300AE82AF83751410751527C007C0061206EB
:1001C300BFAC82D006D007EC2421F987058D3575A5
:1001D30014E87515038E828F83C007C0061206BF0D
:1001E30075140A7515001207EBAC82D006D007EC24
:1001F3002421F987058D347514647515008E828F5B
:1002030083C007C0061206BF75140A7515001207CE
:10021300EBAC82D006D007EC2421F987058D33752A
:10022300140A7515008E828F83C007C0061206BF9D
:1002330075140A7515001207EBAC82D006D007ECD3
:100243002421F987058D3275140A7515008E828F66
:10025300831207EBE5822421F987078F3122D2939A
:10026300C29422AF828F057E0075140A8E158D828B
:100273008E83C007C006C005120963AB82D005D0C8
:1002830006EB2421F987048C3175140A7515008D4A
:10029300828E83C006C00512099975140A7515006C
:1002A300120963AB82D005D006EB2421F987048CB5
:1002B300327514647515008D828E83C006C00512D5
:1002C300099975140A751500120963AB82D005D01C
:1002D30006EB2421F987048C337514E87515038D17
:1002E300828E83C006C00512099975140A7515001C
:1002F300120963AB82D005D006EB2421F987048C65
:10030300347514107515278D828E8312099975140F
:100313000A751500120963AD82D007ED2421F98710
:10032300068E357E007D007C007514A075158675DC
:1003330016018E178F828E838DF0EC1208F5AC8236
:10034300AD83AEF0FF75140AE4F515F516F5178CB9
:10035300828D838EF0EF1208A6E5822421F98707A8
:100363008F36227580FFE53824FA4064E53875F04E
:1003730003A49003797302038B0203970203A3027E
:1003830003AF0203BB0203C7C292C291C2900538F6
:1003930085318022C292C291D29005388532802263
:1003A300C292D291C290053885338022C292D291F3
:1003B300D290053885348022D292C291C2900538FA
:1003C30085358022D292C291D290753800853680CD
:1003D30022E5006035750000E500C4540F2421F9BF
:1003E30087078F36AE0053060FEE2421F987078F58
:1003F30035E502C4540F2421F987078F32AE025327
:10040300060FEE2421F987078F3122D2B6D2B70027
:10041300000000C2B600000000C2B722C2B6C2B7D5
:1004230000000000D2B700000000D2B600000000B8
:1004330022AF82BF01047582FE22BF02047582FDD2
:1004430022BF04047582FB22BF08047582F722BF12
:1004530010047582EF22BF20047582DF22BF40049F
:100463007582BF22BF800375827F22AF827E80EFB9
:100473005E7004C2B68002D2B600000000D2B7009C
:10048300000000C2B7EEC313FE70E4D2B600000052
:1004930000D2B7A2B6E433FF00000000C2B7BF0129
:1004A300047582002275820122D2B67F800000008B
:1004B30000D2B720B6108F82C007120434AE82D0A8
:1004C30007EE520D8003EF420D00000000C2B7EFAC
:1004D300C313FF70D8D2B600000000D2B7000000EB
:1004E30000C2B7850D8222D2B67F8000000000D201
:1004F300B720B6108F82C007120434AE82D007EE45
:10050300520E8003EF420E00000000C2B7EFC31388
:10051300FF70D8C2B600000000D2B700000000C2CE
:10052300B7850E8222AF82C00712040E7582A01215
:10053300046ED0078F8212046E12040E7582A1120C
:10054300046E1204ACAF82C00712041FD0078F825F
:1005530022AF82C00712040E7582A012046ED00768
:100563008F8212046E850F8212046E02041FAD8205
:10057300AE83AFF0C007C006C00512040E7582A09B
:1005830012046EE582D005D006D0077011C007C0F3
:1005930006C00512041FD005D006D00780D68510EB
:1005A30082C007C006C00512046E12040E7582A134
:1005B30012046ED005D006D007AC11EC24FE5027F0
:1005C300C007C006C005C0041204EAAB82D004D041
:1005D30005D006D0078D828E838FF0EB1207D0A350
:1005E300AD82AE831C80D4C007C006C0051204AC24
:1005F300AC82D005D006D0078D828E838FF0EC12AB
:1006030007D002041FAD82AE83AFF0AC12AB138BE5
:10061300021BEA700122C007C006C005C004C00364
:1006230012040E7582A012046EE582D003D004D0AA
:1006330005D006D00760DF8C820CC007C006C0055A
:10064300C004C00312046ED003D004D005D006D07A
:10065300078D828E838FF0120947FAA3AD82AE8392
:100663008A82C007C006C005C004C00312046E120C
:10067300041FD003D004D005D006D007020612AF62
:1006830082C00712040E75829012046EE582D007B1
:10069300700712041F758200224307408F821204E1
:1006A3006E12040E75829112046E1204EA1204ACE7
:1006B300AF82C00712041FD0078F82227A10E4FB97
:1006C300FCE58225E0F582E58333F583EB33FBEC30
:1006D30033FCEB9514F5F0EC95154006FCABF043B9
:1006E3008201DADD22F9E5144515451645176077D1
:1006F3007800C308E51720E73BE51425E0F514E58A
:100703001533F515E51633F516E51733F517E582B9
:100713009514E5839515E5F09516E9951750D4C31F
:10072300E51713F517E51613F516E51513F515E596
:100733001413F514E5829514FCE5839515FDE5F096
:100743009516FEE995174007F98EF08D838C82C3C9
:10075300E51713F517E51613F516E51513F515E566
:100763001413F514D8CEE922FB7A20E4FCFDFEFF36
:10077300E5822582F582E58333F583E5F033F5F0F1
:10078300EB33FB4017DAE98042E5822582F582E507
:100793008333F583E5F033F5F0EB33FBEC33FCED1A
:1007A30033FDEE33FEEF33FFEC9514ED9515EE9527
:1007B30016EF95174013EC9514FCED9515FDEE958A
:0D07C30016FEEF9517FF438201DABEEB2210
:06004000E478FFF6D8FD94
:10001E007900E94400601B7A009009D5780175A03B
:10002E0000E493F2A308B8000205A0D9F4DAF27541
:02003E00A0FF21
:1007D00020F71130F6138883A88220F509F6A88344
:1007E0007583002280FEF280F5F022E51445156045
:1007F000467A01E51425E0F514E515334012F515A8
:10080000E5829514E583951540030A80E6C3E51556
:1008100013F515E51413F514C3E5829514F5F0E509
:100820008395154005F58385F082C3E51513F5150D
:10083000E51413F514DAE122AAF0FBE5828514F041
:10084000A4FCADF0E5838514F0A42DFDE435F0FEA5
:10085000E5828515F0A42DFDE5F03EFEE433FFEAC8
:100860008514F0A42EFEE5F03FFFE5838515F0A486
:100870002EFEE5F03FFFE5828516F0A42EFEE5F0A2
:100880003FFFEB8514F0A42FFFEA8515F0A42FFF9E
:10089000E5838516F0A42FFFE5828517F0A42F8E3F
:0608A000F08D838C822222
:100046007800E84400600A790175A000E4F309D855
:10005600FC7800E84400600C7900900001E4F0A30D
:04006600D8FCD9FAEF
:1008A600F9C2D530E715D2D5E4C39582F582E49531
:1008B60083F583E495F0F5F0E499F9E51730E7154B
:1008C600E4C39514F514E49515F515E49516F51697
:1008D600E49517F517E91206E830D512E4C39582B8
:1008E600F582E49583F583E495F0F5F0E49922FB2F
:1008F600C2D530E715D2D5E4C39582F582E4958357
:10090600F583E495F0F5F0E49BFBE51730E717B2C5
:10091600D5E4C39514F514E49515F515E49516F587
:1009260016E49517F517EB12076B30D513FBE4C3E6
:100936009582F582E49583F583E495F0F5F0E49BE2
:01094600228E
:0D0011007581381209D1E582600302000EEE
:1009470020F71430F6148883A88220F507E6A883D9
:1009570075830022E280F7E49322E022C2D5E58383
:1009670030E70DD2D5E4C39582F582E49583F5830C
:10097700E51530E70BE4C39514F514E49515F51563
:100987001207EB30D50BE4C39582F582E49583F526
:100997008322C2D5E58330E70DD2D5E4C39582F52E
:1009A70082E49583F583E51530E70DB2D5E4C39569
:1009B70014F514E49515F5151206BF30D50BE4C3ED
:0E09C7009582F582E49583F5832275820022E5
:00000001FF
