:0400000002001932AF
:03000B000200AF41
:030013000200F4F4
:0300930002001652
:030016000200964F
:2000960012037A900001120231120570D2AF9063C012029E12052480FBC020C0E0C0F0C0D2
:2000B60082C083C007C006C005C004C003C002C001C000C0D075D00085098C850A8A12042B
:2000D600B6D0D0D000D001D002D003D004D005D006D007D083D082D0F0D0E0D02032C02001
:2000F600C0E0C0F0C082C083C007C006C005C004C003C002C001C000C0D075D0001205A964
:20011600AE82AF83C3EE9499EF941E400874339E74229F5005C28B0201DA120585AE82AF2C
:2001360083C3EE9466EF940E4007E49E74129F5005C28B0201DA7F007E00C007C0061205DC
:20015600A9AC82AD83D006D007C3EC9439ED9401400874CE9C74029D5004C28B8066C00750
:20017600C006120585AC82AD83D006D007C374399C74019D4008EC94CEED94025008E50880
:20019600C313F5088024C374419C74059D5017C3EC94D7ED9406500EE508C313FD7C0043C3
:2001B60005808D088004C28B801A0EBE0800408AEF2414F8A6080FBF0400500302014E754E
:2001D6001301C28BD0D0D000D001D002D003D004D005D006D007D083D082D0F0D0E0D02067
:0101F60032D6
:2001F700AE82AF83C290D291D292D293C294BE0114BF0011D280D281D282D283D284D28514
:1A021700D286D28722EE4F7010C280C281C282C283C284C285C286C28722EF
:06007200750900750A008B
:20023100AE82AF838E188F19751A00751B0090100075F00EE412072BAC82AD83AEF0FF7533
:2002510018E8751903E4F51AF51B8C828D838EF0EF120679AC82AD83AEF0FFE4C39CFCE4BF
:200271009DFD74019EFEE49FFF741C2CFCE43DFDE43EE43F8D098C0A5389F0AE89430601AC
:0D0291008E8985098C850A8AD2A9D28C221B
:18007800751200750BFF750CFF750DFF750EFF750FF97510C07511009F
:20029E00AE82AF83751810751927C007C0061205CDAC82AD83D006D007EC24ACF582ED34BC
:2002BE0008F583E493FD8D0F7518E87519038E828F83C007C0061205CD75180A75190012C0
:2002DE0006DEAC82AD83D006D007EC24ACF582ED3408F583E493FD8D0E7518647519008E21
:2002FE00828F83C007C0061205CD75180A7519001206DEAC82AD83D006D007EC24ACF58282
:20031E00ED3408F583E493FD8D0D75180A7519008E828F83C007C0061205CD75180A751933
:20033E00001206DEAC82AD83D006D007EC24ACF582ED3408F583E493FD8D0C75180A751998
:20035E00008E828F831206DEAE82AF83EE24ACF582EF3408F583E493FF8F0B22D293C29440
:20037E0022AF828F057E0075180A8E198D828E83C007C006C00512083AAB82AC83D005D0F5
:20039E0006EB24ACF582EC3408F583E493FC8C0B75180A7519008D828E83C006C005120873
:2003BE007075180A75190012083AAB82AC83D005D006EB24ACF582EC3408F583E493FC8C5E
:2003DE000C7518647519008D828E83C006C00512087075180A75190012083AAB82AC83D09A
:2003FE0005D006EB24ACF582EC3408F583E493FC8C0D7518E87519038D828E83C006C00575
:20041E0012087075180A75190012083AAB82AC83D005D006EB24ACF582EC3408F583E4936B
:20043E00FC8C0E7518107519278D828E8312087075180A75190012083AAD82AE83D007ED6F
:20045E0024ACF582EE3408F583E493FE8E0F7E007D007C007518A0751986751A018E1B8F03
:20047E00828E838DF0EC1207E8AC82AD83AEF0FF75180AE4F519F51AF51B8C828D838EF022
:20049E00EF120799AC82AD83EC24ACF582ED3408F583E493FF8F10227580FFE51224FA40EB
:2004BE0064E51275F003A49004C9730204DB0204E70204F30204FF02050B020517C292C2D5
:2004DE0091C2900512850B8022C292C291D2900512850C8022C292D291C2900512850D804D
:2004FE0022C292D291D2900512850E8022D292C291C2900512850F8022D292C291D2907573
:20051E00120085108022E5136047751300E514C4540F9008AC93FF8F10AE1453060F7F000F
:20053E00EE24ACF582EF3408F583E493FF8F0FE516C4540F9008AC93FF8F0CAE1653060FF2
:12055E007F00EE24ACF582EF3408F583E493FF8F0B2202
:1008AC00C0F9A4B0999282F880908883C6A1868EF4
:03009000751300E5
:20057000D2B353890FAE894306108E89C28EC2ABD28AD2AA22758D00758B00D28E30B30652
:2005900074C0258D50F7C28EAF8D7E00AC8B7D00EC2EF582ED3FF58322758D00758B00D235
:1D05B0008E20B30674C0258D50F7C28EAF8D7E00AC8B7D00EC2EF582ED3FF5832285
:2005CD007A10E4FBFCE58225E0F582E58333F583EB33FBEC33FCEB9518F5F0EC9519400622
:0905ED00FCABF0438201DADD22CF
:2005F600F9E5184519451A451B60777800C308E51B20E73BE51825E0F518E51933F519E543
:200616001A33F51AE51B33F51BE5829518E5839519E5F0951AE9951B50D4C3E51B13F51BD4
:20063600E51A13F51AE51913F519E51813F518E5829518FCE5839519FDE5F0951AFEE99524
:200656001B4007F98EF08D838C82C3E51B13F51BE51A13F51AE51913F519E51813F518D872
:03067600CEE922A8
:20067900FB7A20E4FCFDFEFFE5822582F582E58333F583E5F033F5F0EB33FB4017DAE980BA
:2006990042E5822582F582E58333F583E5F033F5F0EB33FBEC33FCED33FDEE33FEEF33FFE9
:2006B900EC9518ED9519EE951AEF951B4013EC9518FCED9519FDEE951AFEEF951BFF438233
:0506D90001DABEEB2276
:06004800E478FFF6D8FD8C
:200026007900E94400601B7A009008BC780175A000E493F2A308B8000205A0D9F4DAF275BC
:02004600A0FF19
:2006DE00E518451960467A01E51825E0F518E519334012F519E5829518E583951940030A69
:2006FE0080E6C3E51913F519E51813F518C3E5829518F5F0E58395194005F58385F082C32E
:0D071E00E51913F519E51813F518DAE122B5
:20072B00AAF0FBE5828518F0A4FCADF0E5838518F0A42DFDE435F0FEE5828519F0A42DFD5B
:20074B00E5F03EFEE433FFEA8518F0A42EFEE5F03FFFE5838519F0A42EFEE5F03FFFE582CD
:20076B00851AF0A42EFEE5F03FFFEB8518F0A42FFFEA8519F0A42FFFE583851AF0A42FFF9F
:0E078B00E582851BF0A42F8EF08D838C8222D8
:20004E007800E84400600A790175A000E4F309D8FC7800E84400600C7900900001E4F0A3B0
:04006E00D8FCD9FAE7
:20079900F9C2D530E715D2D5E4C39582F582E49583F583E495F0F5F0E499F9E51B30E71544
:2007B900E4C39518F518E49519F519E4951AF51AE4951BF51BE91205F630D512E4C395820E
:0F07D900F582E49583F583E495F0F5F0E4992239
:2007E800FBC2D530E715D2D5E4C39582F582E49583F583E495F0F5F0E49BFBE51B30E717ED
:20080800B2D5E4C39518F518E49519F519E4951AF51AE4951BF51BEB12067930D513FBE48F
:12082800C39582F582E49583F583E495F0F5F0E49B220A
:0D0019007581201208A8E582600302001620
:20083A00C2D5E58330E70DD2D5E4C39582F582E49583F583E51930E70BE4C39518F518E4C6
:16085A009519F5191206DE30D50BE4C39582F582E49583F58322FB
:20087000C2D5E58330E70DD2D5E4C39582F582E49583F583E51930E70DB2D5E4C39518F503
:1808900018E49519F5191205CD30D50BE4C39582F582E49583F58322D9
:0408A8007582002233
:00000001FF
