:04000000020029329F
:03000B0002029757
:0100130032BA
:01001B0032B2
:03002300020301D4
:08008200E4F51DF51E750800F0
:0301640002002670
:030026000201676D
:200167007FAAC0071207211204F6120CE29000011203AD9025801209A4D007D2AFC00712CA
:2001870007CBD0077401B508F47508007E00EE2409F98E82C007C006C001120CCAE582D0FD
:2001A70001D006D007F70EBE070040E2EFB5090280CB751132751230E50FC4540F2430F5D1
:2001C70013AE0F740F5E2430F51475152DE50DC4540F2430F516AE0D740F5E2430F517756A
:2001E700182DE50CC423541F2430F519AE0C740F5E2430F51A751B00752D11752E00752F7E
:2002070040752C007582001206F0AE0E740F5E2430F511751200752D46752E10752F807545
:200227002C0075820B1206F0752D11752E00752F40752C0075820F1206F0E50BC4540F245D
:2002470030F511AE0B740F5E2430F51275133AE50AC4540F2430F514AE0A740F5E2430F555
:200267001575163AE509C4540F2430F517AE09740F5E2430F518751900752D11752E0075D6
:200287002F40752C017582041206F0AF09020184C020C0E0C0F0C082C083C007C006C005FD
:2002A700C004C003C002C001C000C0D075D00085218C85228A12085B12063212096BAE1D25
:2002C700AF1E051DE4B51D02051EC3EE94C8EF648094804008E4F51DF51E750801D0D0D01A
:2002E70000D001D002D003D004D005D006D007D083D082D0F0D0E0D02032C020C0E0C0F0C4
:20030700C082C083C007C006C005C004C003C002C001C000C0D075D0001209FFD0D0D000D6
:20032700D001D002D003D004D005D006D007D083D082D0F0D0E0D02032AE82AF837C007D58
:2003470000C3EC9EED64808FF063F08095F0501B7A6E7B00EA24FFF8EB34FFF988028903A1
:0C036700E84970F00CBC00D90D80D622D3
:051046007765656B00F9
:20037300AE82AF83C290D291D292D293C294BE0114BF0011D280D281D282D283D284D28596
:1A039300D286D28722EE4F7010C280C281C282C283C284C285C286C2872272
:06008A0075210075220043
:2003AD00AE82AF838E7A8F7B757C00757D0090100075F00EE4120EA9AC82AD83AEF0FF75A9
:2003CD007AE8757B03E4F57CF57D8C828D838EF0EF120DBFAC82AD83AEF0FFE4C39CFCE46D
:2003ED009DFD74019EFEE49FFF741C2CFCE43DFDE43EE43F8D218C225389F0AE89430601FF
:0D040D008E8985218C85228AD2A9D28C226D
:18009000752A007523FF7524FF7525FF7526FF7527F97528C0752900C7
:20041A00AE82AF83757A10757B27C007C006120D13AC82AD83D006D007EC244BF582ED348D
:20043A0010F583E493FD8D27757AE8757B038E828F83C007C006120D13757A0A757B00124C
:20045A000E5CAC82AD83D006D007EC244BF582ED3410F583E493FD8D26757A64757B008E9A
:20047A00828F83C007C006120D13757A0A757B00120E5CAC82AD83D006D007EC244BF582CD
:20049A00ED3410F583E493FD8D25757A0A757B008E828F83C007C006120D13757A0A757BC0
:2004BA0000120E5CAC82AD83D006D007EC244BF582ED3410F583E493FD8D24757A0A757B12
:2004DA00008E828F83120E5CAE82AF83EE244BF582EF3410F583E493FF8F2322D293C2947E
:2004FA0022AF828F057E00757A0A8E7B8D828E83C007C006C005120FD4AB82AC83D005D013
:20051A0006EB244BF582EC3410F583E493FC8C23757A0A757B008D828E83C006C00512106A
:20053A000A757A0A757B00120FD4AB82AC83D005D006EB244BF582EC3410F583E493FC8C3A
:20055A0024757A64757B008D828E83C006C00512100A757A0A757B00120FD4AB82AC83D039
:20057A0005D006EB244BF582EC3410F583E493FC8C25757AE8757B038D828E83C006C00574
:20059A0012100A757A0A757B00120FD4AB82AC83D005D006EB244BF582EC3410F583E49340
:2005BA00FC8C26757A10757B278D828E8312100A757A0A757B00120FD4AD82AE83D007ED0F
:2005DA00244BF582EE3410F583E493FE8E277E007D007C00757AA0757B86757C018E7D8F3F
:2005FA00828E838DF0EC120F66AC82AD83AEF0FF757A0AE4F57BF57CF57D8C828D838EF097
:20061A00EF120F17AC82AD83EC244BF582ED3410F583E493FF8F28227580FFE52A24FA4010
:20063A0064E52A75F003A49006457302065702066302066F02067B020687020693C292C2CF
:20065A0091C290052A85238022C292C291D290052A85248022C292D291C290052A8525803F
:20067A0022C292D291D290052A85268022D292C291C290052A85278022D292C291D2907595
:06069A002A0085288022E1
:10104B00C0F9A4B0999282F880908883C6A1868E4D
:2006A0007580FFC290D291D295AF80C295EF20E7F622AF82C0071206A0D007C290C2918FDB
:2006C00080D295C29522AF82C0071206A0D007D290C2918F80D295C29522AF82E52B7004DA
:2006E0008F06800474402FFE4306808E820206B2852C2B1206DAAD2DAE2EAF2F8D828E83EB
:200700008FF0120FB8FC60188C820DBD00010EC007C006C0051206C6D005D006D00780DC18
:19072000227582381206B275820C1206B27582061206B27582010206B25F
:2000A800E4F540F541754201754301754401754501754601754701754801754901754A014D
:2000C800754B01754C01754D01754E01754F017550017551017555007556FF7557FF755890
:2000E800FF7559FF755AFF755BFF755CFF755DFF755EFF755FFF7560FF7561FF7562FF7555
:2001080063FF7564FF7565FF75300175310175320175330175340175350175360175370178
:18012800753801753901753A01753B01753C01753D01753E01753F0133
:20073900AF82BF30004016EF24C640118F057E00ED24D0F540EE34FFF5410207C2BF240BC8
:200759000540E4B5400205410207C2BF251485407A85417B90000A120E3F8582408583414E
:200779008047BF280B154074FFB5400215418039BF2717757A0A757B008540828541831251
:200799000D13858240858341801FBF0D087540007541148014BF1B11E4F540F541757A03DE
:2007B90090106B75F0801209D985408285418302041A755200E55275F004A4245BFD741081
:2007D90035F0FEE552255225E0FCFB2442FAEC2430F554755300C003E5532AF9E5532554B3
:2007F900F887078603EFB50304D0038031D003EB24302553F98707BF0124E5532DF582E4ED
:200819003EF583E493F582C006C005C004C003C002120739D002D003D004D005D006EC24C1
:20083900422553F9EC24302553F88607A707055374FC255350A0055274FC25524003020747
:20085900CE22E555255525E02456F9E727FFA2A4E4334FF7E555255525E0245604F9E72775
:20087900FFA2A5E4334FF7E555255525E024562402F9E727FFA2A6E4334FF7E555255525DF
:20089900E024562403F9E727FFA2A7E433FE4FF77F00E555255525E0FE24562FF9E7FD5404
:2008B9000F6002800AEE2430FD2FF87600801AEE24562FF9870553050F7C00BD0F0BBC001C
:2008D90008EE2430FE2FF876010FBF040040C30555535503E55524FC4029E55575F003A436
:2008F9009008FD7302090902090E020913020918D2A0C2A322D2A3C2A222D2A2C2A122D2AA
:04091900A1C2A022B5
:14105B00313233243435362537383928301B0D27313233001E
:2001400075720075660E75670C75680D756909756A0B756B03756C07756D06E4F56EF56FCE
:04016000F570F571D0
:20091D00AC82AD83AEF0FFC2AF8C7A8D7B8E7C8F7D900FECE4F5F0120EA9AC82AD83AEF011
:20093D00FF757A68757B01E4F57CF57D8C828D838EF0EF120DBF85826E85836F85F070F55D
:20095D0071D2AF22E4F56EF56FF570F57122E56E456F457045716027E59054F0FFE57224A2
:20097D0066F9E74FF5900572537207156E74FFB56E0C156FB56F071570B57002157122AE27
:07099D009043060F8E90222B
:2009A400AE82AF8375985053890FAC894304208C898E7A8F7B757C00757D00907080E4F58A
:2009C400F0120F66AC82C3E49CF58D858D8BC2ABD2ACD28E22AD82AE83AFF0AC7A8C031CCF
:2009E400EB6017C2998D828E838FF0120FB8F599A3AD82AE832099E580FB221098028000C8
:030A0400A2992292
:200A0700D2B6D2B700000000C2B600000000C2B722C2B6C2B700000000D2B700000000D25F
:200A2700B60000000022AF82BF01047582FE22BF02047582FD22BF04047582FB22BF08044A
:200A47007582F722BF10047582EF22BF20047582DF22BF40047582BF22BF800375827F2214
:200A6700AF827E80EF5E7004C2B68002D2B600000000D2B700000000C2B7EEC313FE70E4E5
:200A8700D2B600000000D2B7A2B6E433FF00000000C2B7BF01047582002275820122D2B6D8
:200AA7007F8000000000D2B720B6108F82C007120A2DAE82D007EE52738003EF42730000BF
:200AC7000000C2B7EFC313FF70D8D2B600000000D2B700000000C2B785738222D2B67F80DD
:200AE70000000000D2B720B6108F82C007120A2DAE82D007EE52748003EF4274000000007C
:200B0700C2B7EFC313FF70D8C2B600000000D2B700000000C2B785748222AF82C007120A1E
:200B2700077582A0120A67D0078F82120A67120A077582A1120A67120AA5AF82C007120A0F
:200B470018D0078F8222AF82C007120A077582A0120A67D0078F82120A67857582120A67CD
:200B6700020A18AD82AE83AFF0C007C006C005120A077582A0120A67E582D005D006D007D3
:200B87007011C007C006C005120A18D005D006D00780D6857682C007C006C005120A67120B
:200BA7000A077582A1120A67D005D006D007AC77EC24FE5027C007C006C005C004120AE3C3
:200BC700AB82D004D005D006D0078D828E838FF0EB120E24A3AD82AE831C80D4C007C006BD
:200BE700C005120AA5AC82D005D006D0078D828E838FF0EC120E24020A18AD82AE83AFF0C6
:200C0700AC78AB798B021BEA700122C007C006C005C004C003120A077582A0120A67E582E3
:200C2700D003D004D005D006D00760DF8C820CC007C006C005C004C003120A67D003D00428
:200C4700D005D006D0078D828E838FF0120FB8FAA3AD82AE838A82C007C006C005C004C0B4
:140C670003120A67120A18D003D004D005D006D007020C0B7D
:200C7B00AF827E01EF5E6004D2B48002C2B4D2B5C2B58E05ED2DFE70EBD2B4227F007E01D0
:200C9B0030B403EE4207D2B5C2B58E05ED2DFE70EF8F8222AF82D297EF2FFF3395E0430737
:200CBB00808F82120C7B851F82120C7BC29722AF82D297EF2FFF3395E04307818F82120C5C
:200CDB007B120C97C29722C297C2B5758200120CCAE58230E721751F00758207120CAF7F22
:180CFB0000EF90106F93F51F8F82C007120CAFD0070FBF070040EA229F
:07106F00003012081002130B
:200D13007A10E4FBFCE58225E0F582E58333F583EB33FBEC33FCEB957AF5F0EC957B400610
:090D3300FCABF0438201DADD2281
:200D3C00F9E57A457B457C457D60777800C308E57D20E73BE57A25E0F57AE57B33F57BE583
:200D5C007C33F57CE57D33F57DE582957AE583957BE5F0957CE9957D50D4C3E57D13F57DB3
:200D7C00E57C13F57CE57B13F57BE57A13F57AE582957AFCE583957BFDE5F0957CFEE99565
:200D9C007D4007F98EF08D838C82C3E57D13F57DE57C13F57CE57B13F57BE57A13F57AD8B3
:030DBC00CEE9225B
:200DBF00FB7A20E4FCFDFEFFE5822582F582E58333F583E5F033F5F0EB33FB4017DAE9806D
:200DDF0042E5822582F582E58333F583E5F033F5F0EB33FBEC33FCED33FDEE33FEEF33FF9C
:200DFF00EC957AED957BEE957CEF957D4013EC957AFCED957BFDEE957CFEEF957DFF4382D6
:050E1F0001DABEEB2228
:06005800E478FFF6D8FD7C
:200036007900E94400601B7A00901076780175A000E493F2A308B8000205A0D9F4DAF275EA
:02005600A0FF09
:1B0E240020F71130F6138883A88220F509F6A8837583002280FEF280F5F022CD
:1D0E3F00E582857AF0A4C582C0F0857BF0A4D0F025F0C583857AF0A42583F583221F
:200E5C00E57A457B60467A01E57A25E0F57AE57B334012F57BE582957AE583957B40030AD3
:200E7C0080E6C3E57B13F57BE57A13F57AC3E582957AF5F0E583957B4005F58385F082C35C
:0D0E9C00E57B13F57BE57A13F57ADAE122A8
:200EA900AAF0FBE582857AF0A4FCADF0E583857AF0A42DFDE435F0FEE582857BF0A42DFDB0
:200EC900E5F03EFEE433FFEA857AF0A42EFEE5F03FFFE583857BF0A42EFEE5F03FFFE58284
:200EE900857CF0A42EFEE5F03FFFEB857AF0A42FFFEA857BF0A42FFFE583857CF0A42FFF92
:0E0F0900E582857DF0A42F8EF08D838C8222F0
:20005E007800E84400600A790175A000E4F309D8FC7800E84400600C7900900001E4F0A3A0
:04007E00D8FCD9FAD7
:200F1700F9C2D530E715D2D5E4C39582F582E49583F583E495F0F5F0E499F9E57D30E7155C
:200F3700E4C3957AF57AE4957BF57BE4957CF57CE4957DF57DE9120D3C30D512E4C395822A
:0F0F5700F582E49583F583E495F0F5F0E49922B3
:200F6600FBC2D530E715D2D5E4C39582F582E49583F583E495F0F5F0E49BFBE57D30E71705
:200F8600B2D5E4C3957AF57AE4957BF57BE4957CF57CE4957DF57DEB120DBF30D513FBE4AD
:120FA600C39582F582E49583F583E495F0F5F0E49B2285
:0D00290075817D121042E582600302002601
:1C0FB80020F71430F6148883A88220F507E6A88375830022E280F7E49322E02248
:200FD400C2D5E58330E70DD2D5E4C39582F582E49583F583E57B30E70BE4C3957AF57AE4FF
:160FF400957BF57B120E5C30D50BE4C39582F582E49583F5832210
:20100A00C2D5E58330E70DD2D5E4C39582F582E49583F583E57B30E70DB2D5E4C3957AF59D
:18102A007AE4957BF57B120D1330D50BE4C39582F582E49583F58322C3
:041042007582002291
:00000001FF
