:04000000020029329F
:03000B00020210DE
:0100130032BA
:01001B0032B2
:0300230002027A5C
:08008200E4F50EF50F7508000E
:0301940002002640
:030026000201973D
:10019700750A31750B32750C33750D0012069A12FC
:1001A700046F9000011203269025801208FED2AF3B
:1001B700751C08751D0F751E80751B017582001251
:1001C7000669757802757903900F1575F080120B23
:1001D7005B75760275770390000A75F040120AC4C2
:1001E700751C0A751D00751E40751B00758200126F
:1001F7000669E404F575758202120AA712074474AA
:1002070001B508F875080080F3C020C0E0C0F0C051
:1002170082C083C007C006C005C004C003C002C0B7
:1002270001C000C0D075D00085108C85118A1207D7
:10023700B51205AB1208C5AE0EAF0F050EE4B50E2D
:1002470002050FC3EE94E8EF648094834008E4F559
:100257000EF50F750801D0D0D000D001D002D00321
:10026700D004D005D006D007D083D082D0F0D0E01C
:10027700D02032C020C0E0C0F0C082C083C007C019
:1002870006C005C004C003C002C001C000C0D075CD
:10029700D000120959D0D0D000D001D002D003D05D
:1002A70004D005D006D007D083D082D0F0D0E0D0DC
:1002B7002032AE82AF837C007D00C3EC9EED64806C
:1002C7008FF063F08095F0501B7A6E7B00EA24FF75
:1002D700F8EB34FFF988028903E84970F00CBC0099
:0502E700D90D80D622B4
:100F080068656C6C6F20776F726C642100383331C0
:010F180000D8
:1002EC00AE82AF83C290D291D292D293C294BE010D
:1002FC0014BF0011D280D281D282D283D284D28513
:10030C00D286D28722EE4F7010C280C281C282C2C6
:0A031C0083C284C285C286C2872214
:06008A0075100075110065
:10032600AE82AF838E7A8F7B757C00757D009010D0
:100336000075F00EE4120D6BAC82AD83AEF0FF7566
:100346007AE8757B03E4F57CF57D8C828D838EF0EF
:10035600EF120C81AC82AD83AEF0FFE4C39CFCE4EB
:100366009DFD74019EFEE49FFF741C2CFCE43DFD84
:10037600E43EE43F8D108C115389F0AE89430601AB
:0D0386008E8985108C85118AD2A9D28C2217
:100090007519007512FF7513FF7514FF7515FF753F
:0800A00016F97517C075180070
:10039300AE82AF83757A10757B27C007C006120B38
:1003A300D5AC82AD83D006D007EC2419F582ED34A9
:1003B3000FF583E493FD8D16757AE8757B038E82C2
:1003C3008F83C007C006120BD5757A0A757B00129E
:1003D3000D1EAC82AD83D006D007EC2419F582ED57
:1003E300340FF583E493FD8D15757A64757B008E68
:1003F300828F83C007C006120BD5757A0A757B00FE
:10040300120D1EAC82AD83D006D007EC2419F58201
:10041300ED340FF583E493FD8D14757A0A757B0033
:100423008E828F83C007C006120BD5757A0A757B3F
:1004330000120D1EAC82AD83D006D007EC2419F553
:1004430082ED340FF583E493FD8D13757A0A757B82
:10045300008E828F83120D1EAE82AF83EE2419F5B8
:1004630082EF340FF583E493FF8F1222D293C29469
:1004730022AF828F057E00757A0A8E7B8D828E83F2
:10048300C007C006C005120E96AB82AC83D005D060
:1004930006EB2419F582EC340FF583E493FC8C12FC
:1004A300757A0A757B008D828E83C006C005120E95
:1004B300CC757A0A757B00120E96AB82AC83D0059D
:1004C300D006EB2419F582EC340FF583E493FC8C0E
:1004D30013757A64757B008D828E83C006C0051206
:1004E3000ECC757A0A757B00120E96AB82AC83D064
:1004F30005D006EB2419F582EC340FF583E493FC65
:100503008C14757AE8757B038D828E83C006C005D3
:10051300120ECC757A0A757B00120E96AB82AC83F1
:10052300D005D006EB2419F582EC340FF583E49360
:10053300FC8C15757A10757B278D828E83120ECCF9
:10054300757A0A757B00120E96AD82AE83D007EDE5
:100553002419F582EE340FF583E493FE8E167E00A4
:100563007D007C00757AA0757B86757C018E7D8FFE
:10057300828E838DF0EC120E28AC82AD83AEF0FF39
:10058300757A0AE4F57BF57CF57D8C828D838EF09C
:10059300EF120DD9AC82AD83EC2419F582ED340F43
:1005A300F583E493FF8F17227580FFE51924FA4042
:1005B30064E51975F003A49005BE730205D0020526
:1005C300DC0205E80205F402060002060CC292C230
:1005D30091C290051985128022C292C291D29005D0
:1005E3001985138022C292D291C290051985148075
:1005F30022C292D291D290051985158022D292C23D
:1006030091C290051985168022D292C291D290751B
:060613001900851780228A
:100F1900C0F9A4B0999282F880908883C6A1868E80
:100619007580FFC290D291D295AF80C295EF20E745
:10062900F622AF82C007120619D007C290C2918F75
:1006390080D295C29522AF82C007120619D007D27F
:1006490090C2918F80D295C29522AF82E51A70042B
:100659008F06800474402FFE4306808E8202062B8B
:10066900851B1A120653AD1CAE1DAF1E8D828E83DB
:100679008FF0120E7AFC60188C820DBD00010EC03D
:1006890007C006C00512063FD005D006D00780DC9A
:100699002275823812062B75820C12062B7582067A
:0906A90012062B75820102062BDA
:1000A800E4F541F54275430175440175450175460E
:1000B80001754701754801754901754A01754B017C
:1000C800754C01754D01754E01754F0175500175DF
:1000D80051017552017555007556FF7557FF7558D2
:1000E800FF7559FF755AFF755BFF755CFF755DFFFE
:1000F800755EFF755FFF7560FF7561FF7562FF755F
:1001080063FF7564FF7565FF7521317522327523AC
:1001180033752424752534752635752736752825B5
:10012800752937752A38752B39752C28752D307532
:100138002E1B752F0D7530277531017532017533FA
:10014800017534017535017536017537017538014A
:10015800753901753A01753B01753C01753D0175AD
:080168003E01753F01754001E5
:1006B200AF82BF30004016EF24C640118F057E0086
:1006C200ED24D0F541EE34FFF54202073BBF240B87
:1006D2000541E4B54102054202073BBF25148541AD
:1006E2007A85427B90000A120D0185824185834200
:1006F2008047BF280B154174FFB54102154280396E
:10070200BF2717757A0A757B00854182854283125D
:100712000BD5858241858342801FBF0D087541003C
:100722007542148014BF1B11E4F541F542757A033A
:10073200900F2975F0801209338541828542830228
:100742000393755300E553255325E0FEFD2443FC36
:10075200EE2431FB755400E5542CF9E5542BF8874F
:10076200078602EFB502028026ED24312554F9876F
:1007720007BF011BED24212554F98782C006C0055D
:10078200C004C0031206B2D003D004D005D006EED6
:1007920024432554F9EE24312554F88607A707058A
:1007A2005474FC255450B0055374FC255340030285
:1007B200074722E555255525E02456F9E727FFA2EC
:1007C200A4E4334FF7E555255525E0245604F9E70F
:1007D20027FFA2A5E4334FF7E555255525E024561A
:1007E2002402F9E727FFA2A6E4334FF7E555255582
:1007F20025E024562403F9E727FFA2A7E433FE4F9E
:10080200F77F00E555255525E0FE24562FF9E7FD33
:10081200540F6002800AEE2431FD2FF87600801A10
:10082200EE24562FF9870553050F7C00BD0F0BBC34
:100832000008EE2431FE2FF876010FBF040040C3FA
:100842000555535503E55524FC4029E55575F0033C
:10085200A49008577302086302086802086D020830
:1008620072D2A0C2A322D2A3C2A222D2A2C2A12227
:05087200D2A1C2A0228A
:040F2900313233002E
:1001700075720075660E75670C75680D7569097581
:100180006A0B756B03756C07756D06E4F56EF56F9C
:04019000F570F571A0
:10087700AC82AD83AEF0FFC2AF8C7A8D7B8E7C8F5E
:100887007D900FECE4F5F0120D6BAC82AD83AEF00A
:10089700FF757A68757B01E4F57CF57D8C828D8325
:1008A7008EF0EF120C8185826E85836F85F070F56F
:1008B70071D2AF22E4F56EF56FF570F57122E56E32
:1008C700456F457045716027E59054F0FFE5722448
:1008D70066F9E74FF5900572537207156E74FFB509
:1008E7006E0C156FB56F071570B57002157122AED6
:1008F7009043060F8E9022AE82AF8375985053892E
:100907000FAC894304208C898E7A8F7B757C0075A8
:100917007D00907080E4F5F0120E28AC82C3E49C51
:10092700F58D858D8BC2ABD2ACD28E22AD82AE83D4
:10093700AFF0AC7A8C031CEB6017C2998D828E8363
:100947008FF0120E7AF599A3AD82AE832099E580D8
:10095700FB221098028000A29922D2B6D2B70000DB
:100967000000C2B600000000C2B722C2B6C2B7007C
:10097700000000D2B700000000D2B600000000223D
:10098700AF82BF01047582FE22BF02047582FD2279
:10099700BF04047582FB22BF08047582F722BF10CB
:1009A700047582EF22BF20047582DF22BF400475E1
:1009B70082BF22BF800375827F22AF827E80EF5E77
:1009C7007004C2B68002D2B600000000D2B70000A1
:1009D7000000C2B7EEC313FE70E4D2B600000000F9
:1009E700D2B7A2B6E433FF00000000C2B7BF0104CC
:1009F7007582002275820122D2B67F800000000036
:100A0700D2B720B6108F82C007120987AE82D007EF
:100A1700EE52738003EF427300000000C2B7EFC3CA
:100A270013FF70D8D2B600000000D2B70000000054
:100A3700C2B785738222D2B67F8000000000D2B78A
:100A470020B6108F82C007120987AE82D007EE52F8
:100A5700748003EF427400000000C2B7EFC313FFB6
:100A670070D8C2B600000000D2B700000000C2B7BD
:100A770085748222AF82C0071209617582A01209AC
:100A8700C1D0078F821209C11209617582A11209AB
:100A9700C11209FFAF82C007120972D0078F8222E5
:100AA700AF82C0071209617582A01209C1D0078FF2
:100AB700821209C18575821209C1020972AD82AE1F
:100AC70083AFF0C007C006C0051209617582A01286
:100AD70009C1E582D005D006D0077011C007C0064E
:100AE700C005120972D005D006D00780D685768258
:100AF700C007C006C0051209C11209617582A1129B
:100B070009C1D005D006D007AC77EC24FE5027C02A
:100B170007C006C005C004120A3DAB82D004D00549
:100B2700D006D0078D828E838FF0EB120CE6A3AD33
:100B370082AE831C80D4C007C006C0051209FFAC73
:100B470082D005D006D0078D828E838FF0EC120CF1
:100B5700E6020972AD82AE83AFF0AC78AB798B0257
:100B67001BEA700122C007C006C005C004C00312FB
:100B770009617582A01209C1E582D003D004D005AE
:100B8700D006D00760DF8C820CC007C006C005C046
:100B970004C0031209C1D003D004D005D006D00782
:100BA7008D828E838FF0120E7AFAA3AD82AE838A7E
:100BB70082C007C006C005C004C0031209C11209DC
:100BC70072D003D004D005D006D007020B657A1087
:100BD700E4FBFCE58225E0F582E58333F583EB331F
:100BE700FBEC33FCEB957AF5F0EC957B4006FCAB20
:100BF700F0438201DADD22F9E57A457B457C457DC4
:100C070060777800C308E57D20E73BE57A25E0F5C6
:100C17007AE57B33F57BE57C33F57CE57D33F57D44
:100C2700E582957AE583957BE5F0957CE9957D509E
:100C3700D4C3E57D13F57DE57C13F57CE57B13F5E2
:100C47007BE57A13F57AE582957AFCE583957BFD5A
:100C5700E5F0957CFEE9957D4007F98EF08D838C54
:100C670082C3E57D13F57DE57C13F57CE57B13F504
:100C77007BE57A13F57AD8CEE922FB7A20E4FCFDEE
:100C8700FEFFE5822582F582E58333F583E5F033C0
:100C9700F5F0EB33FB4017DAE98042E5822582F570
:100CA70082E58333F583E5F033F5F0EB33FBEC3383
:100CB700FCED33FDEE33FEEF33FFEC957AED957BDC
:100CC700EE957CEF957D4013EC957AFCED957BFDD9
:0F0CD700EE957CFEEF957DFF438201DABEEB22A6
:06005800E478FFF6D8FD7C
:100036007900E94400601B7A00900F2D780175A0C5
:1000460000E493F2A308B8000205A0D9F4DAF27529
:02005600A0FF09
:100CE60020F71130F6138883A88220F509F6A88329
:100CF6007583002280FEF280F5F022E582857AF087
:100D0600A4C582C0F0857BF0A4D0F025F0C583850C
:100D16007AF0A42583F58322E57A457B60467A013D
:100D2600E57A25E0F57AE57B334012F57BE5829599
:100D36007AE583957B40030A80E6C3E57B13F57B62
:100D4600E57A13F57AC3E582957AF5F0E583957B26
:100D56004005F58385F082C3E57B13F57BE57A13C1
:100D6600F57ADAE122AAF0FBE582857AF0A4FCADF9
:100D7600F0E583857AF0A42DFDE435F0FEE5828565
:100D86007BF0A42DFDE5F03EFEE433FFEA857AF024
:100D9600A42EFEE5F03FFFE583857BF0A42EFEE55D
:100DA600F03FFFE582857CF0A42EFEE5F03FFFEBE9
:100DB600857AF0A42FFFEA857BF0A42FFFE58385D3
:100DC6007CF0A42FFFE582857DF0A42F8EF08D8325
:030DD6008C8222EA
:10005E007800E84400600A790175A000E4F309D83D
:10006E00FC7800E84400600C7900900001E4F0A3F5
:04007E00D8FCD9FAD7
:100DD900F9C2D530E715D2D5E4C39582F582E495F9
:100DE90083F583E495F0F5F0E499F9E57D30E715AD
:100DF900E4C3957AF57AE4957BF57BE4957CF57CFB
:100E0900E4957DF57DE9120BFE30D512E4C3958298
:100E1900F582E49583F583E495F0F5F0E49922FBF6
:100E2900C2D530E715D2D5E4C39582F582E495831E
:100E3900F583E495F0F5F0E49BFBE57D30E717B227
:100E4900D5E4C3957AF57AE4957BF57BE4957CF551
:100E59007CE4957DF57DEB120C8130D513FBE4C361
:100E69009582F582E49583F583E495F0F5F0E49BAA
:010E79002256
:0D00290075817D120F04E582600302002640
:100E7A0020F71430F6148883A88220F507E6A883A1
:100E8A0075830022E280F7E49322E022C2D5E5834B
:100E9A0030E70DD2D5E4C39582F582E49583F583D4
:100EAA00E57B30E70BE4C3957AF57AE4957BF57B2D
:100EBA00120D1E30D50BE4C39582F582E49583F5B5
:100ECA008322C2D5E58330E70DD2D5E4C39582F5F6
:100EDA0082E49583F583E57B30E70DB2D5E4C395CB
:100EEA007AF57AE4957BF57B120BD530D50BE4C302
:0E0EFA009582F582E49583F5832275820022AD
:00000001FF
