:04000000020029329F
:03000B000201D01F
:0100130032BA
:01001B0032B2
:0300230002023A9C
:08008200E4F509F50A75080018
:0301940002002640
:030026000201973D
:2001970012065A12042F9000011202E69025801208BED2AF90006412027975173975180C99
:2001B7007519807516017582001206291207047401B508F875080080F3C020C0E0C0F0C02F
:2001D70082C083C007C006C005C004C003C002C001C000C0D075D000850B8C850C8A120702
:2001F7007512056B120885AE09AF0A0509E4B50902050AC3EE94E8EF648094834008E4F5E9
:2002170009F50A750801D0D0D000D001D002D003D004D005D006D007D083D082D0F0D0E0F0
:20023700D02032C020C0E0C0F0C082C083C007C006C005C004C003C002C001C000C0D075AF
:20025700D000120919D0D0D000D001D002D003D004D005D006D007D083D082D0F0D0E0D062
:200277002032AE82AF837C007D00C3EC9EED64808FF063F08095F0501B7A6E7B00EA24FFEA
:15029700F8EB34FFF988028903E84970F00CBC00D90D80D62276
:0D0C390068656C6C6F20776F726C64210031
:2002AC00AE82AF83C290D291D292D293C294BE0114BF0011D280D281D282D283D284D2855E
:1A02CC00D286D28722EE4F7010C280C281C282C283C284C285C286C287223A
:06008A00750B00750C006F
:2002E600AE82AF838E1A8F1B751C00751D0090100075F00EE4120A9CAC82AD83AEF0FF7502
:200306001AE8751B03E4F51CF51D8C828D838EF0EF1209CDAC82AD83AEF0FFE4C39CFCE4AA
:200326009DFD74019EFEE49FFF741C2CFCE43DFDE43EE43F8D0B8C0C5389F0AE89430601F2
:0D0346008E89850B8C850C8AD2A9D28C2261
:18009000751400750DFF750EFF750FFF7510FF7511F97512C075130077
:20035300AE82AF83751A10751B27C007C006120921AC82AD83D006D007EC2446F582ED3410
:200373000CF583E493FD8D11751AE8751B038E828F83C007C006120921751A0A751B0012A4
:200393000A4FAC82AD83D006D007EC2446F582ED340CF583E493FD8D10751A64751B008E52
:2003B300828F83C007C006120921751A0A751B00120A4FAC82AD83D006D007EC2446F58261
:2003D300ED340CF583E493FD8D0F751A0A751B008E828F83C007C006120921751A0A751B18
:2003F30000120A4FAC82AD83D006D007EC2446F582ED340CF583E493FD8D0E751A0A751BCA
:20041300008E828F83120A4FAE82AF83EE2446F582EF340CF583E493FF8F0D22D293C29475
:2004330022AF828F057E00751A0A8E1B8D828E83C007C006C005120BC7AB82AC83D005D0AB
:2004530006EB2446F582EC340CF583E493FC8C0D751A0A751B008D828E83C006C005120B16
:20047300FD751A0A751B00120BC7AB82AC83D005D006EB2446F582EC340CF583E493FC8CE9
:200493000E751A64751B008D828E83C006C005120BFD751A0A751B00120BC7AB82AC83D0BA
:2004B30005D006EB2446F582EC340CF583E493FC8C0F751AE8751B038D828E83C006C0051B
:2004D300120BFD751A0A751B00120BC7AB82AC83D005D006EB2446F582EC340CF583E493F4
:2004F300FC8C10751A10751B278D828E83120BFD751A0A751B00120BC7AD82AE83D007ED90
:200513002446F582EE340CF583E493FE8E117E007D007C00751AA0751B86751C018E1D8FA5
:20053300828E838DF0EC120B59AC82AD83AEF0FF751A0AE4F51BF51CF51D8C828D838EF0EF
:20055300EF120B0AAC82AD83EC2446F582ED340CF583E493FF8F12227580FFE51424FA401E
:2005730064E51475F003A490057E7302059002059C0205A80205B40205C00205CCC292C225
:2005930091C2900514850D8022C292C291D2900514850E8022C292D291C2900514850F808B
:2005B30022C292D291D290051485108022D292C291C290051485118022D292C291D29075B5
:0605D300140085128022D5
:100C4600C0F9A4B0999282F880908883C6A1868E56
:2005D9007580FFC290D291D295AF80C295EF20E7F622AF82C0071205D9D007C290C2918F6B
:2005F90080D295C29522AF82C0071205D9D007D290C2918F80D295C29522AF82E515700480
:200619008F06800474402FFE4306808E820205EB851615120613AD17AE18AF198D828E83AF
:200639008FF0120BABFC60188C820DBD00010EC007C006C0051205FFD005D006D00780DCB9
:19065900227582381205EB75820C1205EB7582061205EB7582010205EB47
:2000A800E4F541F542754301754401754501754601754701754801754901754A01754B0142
:2000C800754C01754D01754E01754F017550017551017552017555007556FF7557FF755889
:2000E800FF7559FF755AFF755BFF755CFF755DFF755EFF755FFF7560FF7561FF7562FF7555
:2001080063FF7564FF7565FF7521317522327523337524247525347526357527367528257A
:20012800752937752A38752B39752C28752D30752E1B752F0D753027753101753201753365
:2001480001753401753501753601753701753801753901753A01753B01753C01753D017550
:080168003E01753F01754001E5
:20067200AF82BF30004016EF24C640118F057E00ED24D0F541EE34FFF5420206FBBF240B56
:200692000541E4B5410205420206FBBF251485411A85421B90000A120A32858241858342A8
:2006B2008047BF280B154174FFB5410215428039BF2717751A0A751B0085418285428312D4
:2006D2000921858241858342801FBF0D087541007542148014BF1B11E4F541F542751A03F6
:2006F200900C5675F0801208F3854182854283020353755300E553255325E0FEFD2443FC3F
:20071200EE2431FB755400E5542CF9E5542BF887078602EFB502028026ED24312554F98767
:2007320007BF011BED24212554F98782C006C005C004C003120672D003D004D005D006EE3C
:2007520024432554F9EE24312554F88607A707055474FC255450B0055374FC2553400302F8
:20077200070722E555255525E02456F9E727FFA2A4E4334FF7E555255525E0245604F9E744
:2007920027FFA2A5E4334FF7E555255525E024562402F9E727FFA2A6E4334FF7E5552555C5
:2007B20025E024562403F9E727FFA2A7E433FE4FF77F00E555255525E0FE24562FF9E7FD1B
:2007D200540F6002800AEE2431FD2FF87600801AEE24562FF9870553050F7C00BD0F0BBCAF
:2007F2000008EE2431FE2FF876010FBF040040C30555535503E55524FC4029E55575F003C1
:20081200A49008177302082302082802082D020832D2A0C2A322D2A3C2A222D2A2C2A12241
:05083200D2A1C2A022CA
:040C56003132330004
:2001700075720075660E75670C75680D756909756A0B756B03756C07756D06E4F56EF56F9E
:04019000F570F571A0
:20083700AC82AD83AEF0FFC2AF8C1A8D1B8E1C8F1D900FECE4F5F0120A9CAC82AD83AEF089
:20085700FF751A68751B01E4F51CF51D8C828D838EF0EF1209CD85826E85836F85F070F5BA
:2008770071D2AF22E4F56EF56FF570F57122E56E456F457045716027E59054F0FFE5722489
:2008970066F9E74FF5900572537207156E74FFB56E0C156FB56F071570B57002157122AE0E
:0708B7009043060F8E902212
:2008BE00AE82AF8375985053890FAC894304208C898E1A8F1B751C00751D00907080E4F5F1
:2008DE00F0120B59AC82C3E49CF58D858D8BC2ABD2ACD28E22AD82AE83AFF0AC1A8C031C27
:2008FE00EB6017C2998D828E838FF0120BABF599A3AD82AE832099E580FB221098028000C0
:03091E00A2992279
:200921007A10E4FBFCE58225E0F582E58333F583EB33FBEC33FCEB951AF5F0EC951B4006C6
:09094100FCABF0438201DADD2277
:20094A00F9E51A451B451C451D60777800C308E51D20E73BE51A25E0F51AE51B33F51BE5D9
:20096A001C33F51CE51D33F51DE582951AE583951BE5F0951CE9951D50D4C3E51D13F51D69
:20098A00E51C13F51CE51B13F51BE51A13F51AE582951AFCE583951BFDE5F0951CFEE995BB
:2009AA001D4007F98EF08D838C82C3E51D13F51DE51C13F51CE51B13F51BE51A13F51AD809
:0309CA00CEE92251
:2009CD00FB7A20E4FCFDFEFFE5822582F582E58333F583E5F033F5F0EB33FB4017DAE98063
:2009ED0042E5822582F582E58333F583E5F033F5F0EB33FBEC33FCED33FDEE33FEEF33FF92
:200A0D00EC951AED951BEE951CEF951D4013EC951AFCED951BFDEE951CFEEF951DFF4382CB
:050A2D0001DABEEB221E
:06005800E478FFF6D8FD7C
:200036007900E94400601B7A00900C5A780175A000E493F2A308B8000205A0D9F4DAF2750A
:02005600A0FF09
:1D0A3200E582851AF0A4C582C0F0851BF0A4D0F025F0C583851AF0A42583F5832250
:200A4F00E51A451B60467A01E51A25E0F51AE51B334012F51BE582951AE583951B40030AE4
:200A6F0080E6C3E51B13F51BE51A13F51AC3E582951AF5F0E583951B4005F58385F082C3AD
:0D0A8F00E51B13F51BE51A13F51ADAE12239
:200A9C00AAF0FBE582851AF0A4FCADF0E583851AF0A42DFDE435F0FEE582851BF0A42DFDE1
:200ABC00E5F03EFEE433FFEA851AF0A42EFEE5F03FFFE583851BF0A42EFEE5F03FFFE58255
:200ADC00851CF0A42EFEE5F03FFFEB851AF0A42FFFEA851BF0A42FFFE583851CF0A42FFF23
:0E0AFC00E582851DF0A42F8EF08D838C822262
:20005E007800E84400600A790175A000E4F309D8FC7800E84400600C7900900001E4F0A3A0
:04007E00D8FCD9FAD7
:200B0A00F9C2D530E715D2D5E4C39582F582E49583F583E495F0F5F0E499F9E51D30E715CD
:200B2A00E4C3951AF51AE4951BF51BE4951CF51CE4951DF51DE912094A30D512E4C3958231
:0F0B4A00F582E49583F583E495F0F5F0E49922C4
:200B5900FBC2D530E715D2D5E4C39582F582E49583F583E495F0F5F0E49BFBE51D30E71776
:200B7900B2D5E4C3951AF51AE4951BF51BE4951CF51CE4951DF51DEB1209CD30D513FBE4B4
:120B9900C39582F582E49583F583E495F0F5F0E49B2296
:0D002900758172120C35E58260030200261D
:1C0BAB0020F71430F6148883A88220F507E6A88375830022E280F7E49322E02259
:200BC700C2D5E58330E70DD2D5E4C39582F582E49583F583E51B30E70BE4C3951AF51AE430
:160BE700951BF51B120A4F30D50BE4C39582F582E49583F58322F2
:200BFD00C2D5E58330E70DD2D5E4C39582F582E49583F583E51B30E70DB2D5E4C3951AF56F
:180C1D001AE4951BF51B12092130D50BE4C39582F582E49583F58322EA
:040C350075820022A2
:00000001FF
