:0400000002001132B7
:03000B000200DF11
:07006A00E4F50AF50BC200EA
:0300920002000E5B
:03000E0002009558
:10009500120289900001120140D2AF1206701000C1
:1000A5000280FB90000875F040120693E58224FF5C
:1000B500E4336021850882E509C4C582C4540F650F
:1000C50082C582540FC5826582C58230E30244F041
:1000D500F5831201AD12067080C4C021C0E0C0F0E6
:1000E500C082C083C007C006C005C004C003C002EB
:1000F500C001C000C0D075D000850C8C850D8AAEBE
:100105000AAF0B050AE4B50A02050BC3EE94E8EF46
:1001150094034007E4F50AF50BD2001203C5D0D0CD
:10012500D000D001D002D003D004D005D006D0072E
:0B013500D083D082D0F0D0E0D0213287
:06007100750C00750D0086
:10014000AE82AF838E228F23752400752500901018
:100150000075F00EE412087FAC82AD83AEF0FF753F
:1001600022E8752303E4F524F5258C828D838EF037
:10017000EF1207B2AC82AD83AEF0FFE4C39CFCE4A7
:100180009DFD74019EFEE49FFF741C2CFCE43DFD6C
:10019000E43EE43F8D0C8C0D5389F0AE894306019B
:0D01A0008E89850C8C850D8AD2A9D28C2207
:10007700751500750EFF750FFF7510FF7511FF756C
:0800870012F97513C075140095
:1001AD00AE82AF83752210752327C007C0061207D4
:1001BD0006AC82AD83D006D007EC2400F582ED3479
:1001CD000AF583E493FD8D127522E87523038E8263
:1001DD008F83C007C00612070675220A7523001209
:1001ED000832AC82AD83D006D007EC2400F582ED49
:1001FD00340AF583E493FD8D117522647523008E09
:10020D00828F83C007C00612070675220A75230068
:10021D00120832AC82AD83D006D007EC2400F582F3
:10022D00ED340AF583E493FD8D1075220A752300D4
:10023D008E828F83C007C00612070675220A7523AA
:10024D0000120832AC82AD83D006D007EC2400F545
:10025D0082ED340AF583E493FD8D0F75220A752323
:10026D00008E828F83120832AE82AF83EE2400F5AA
:10027D0082EF340AF583E493FF8F0E22D293C2945A
:10028D0022AF828F057E0075220A8E238D828E838A
:10029D00C007C006C00512098EAB82AC83D005D055
:1002AD0006EB2400F582EC340AF583E493FC8C0E06
:1002BD0075220A7523008D828E83C006C005120932
:1002CD00C475220A75230012098EAB82AC83D0054A
:1002DD00D006EB2400F582EC340AF583E493FC8C14
:1002ED000F7522647523008D828E83C006C00512A2
:1002FD0009C475220A75230012098EAB82AC83D016
:10030D0005D006EB2400F582EC340AF583E493FC6A
:10031D008C107522E87523038D828E83C006C0056F
:10032D001209C475220A75230012098EAB82AC83A3
:10033D00D005D006EB2400F582EC340AF583E49366
:10034D00FC8C117522107523278D828E831209C4A2
:10035D0075220A75230012098EAD82AE83D007ED8A
:10036D002400F582EE340AF583E493FE8E127E00AE
:10037D007D007C007522A07523867524018E258F46
:10038D00828E838DF0EC12093CAC82AD83AEF0FF12
:10039D0075220AE4F523F524F5258C828D838EF0E4
:1003AD00EF1208EDAC82AD83EC2400F582ED340A3A
:1003BD00F583E493FF8F13227580FFE51524FA4032
:1003CD0064E51575F003A49003D8730203EA0203E4
:1003DD00F602040202040E02041A020426C292C29C
:1003ED0091C2900515850E8022C292C291D29005C0
:1003FD0015850F8022C292D291C29005158510806D
:10040D0022C292D291D290051585118022D292C22C
:10041D0091C290051585128022D292C291D290750B
:10042D00150085138022E5166047751600E517C483
:10043D00540F900A0093FF8F13AE1753060F7F00D2
:10044D00EE2400F582EF340AF583E493FF8F12E575
:10045D0019C4540F900A0093FF8F0FAE1953060F56
:10046D007F00EE2400F582EF340AF583E493FF8FCD
:02047D000E224D
:100A0000C0F9A4B0999282F880908883C6A1868E9E
:03008F00751600E3
:10047F00D2B353890FAE894306108E89C28EC2AB99
:10048F00D28AD2AA22758D00758B00D28E30B30618
:10049F0074C0258D50F7C28EAF8D7E00AC8B7D0062
:1004AF00EC2EF582ED3FF58322758D00758B00D212
:1004BF008E20B30674C0258D50F7C28EAF8D7E008F
:1004CF00AC8B7D00EC2EF582ED3FF583221204B844
:1004DF00AE82AF83C3EE9499EF941E400874339E9F
:1004EF0074229F5003C28B22120494AE82AF83C337
:1004FF00EE9466EF940E4007E49E74129F5003C271
:10050F008B227F007E00C007C0061204B8AC82ADFC
:10051F0083D006D007C3EC9439ED9401400874CE14
:10052F009C74029D5003C28B22C007C00612049414
:10053F00AC82AD83D006D007C374399C74019D5033
:10054F0011C3EC94CEED94025008E51BC313F51BB9
:10055F008023C374419C74059D5017C3EC94D7ED51
:10056F009406500EE51BC313FD7C004305808D1BC5
:10057F008003C28B220EBE0800408BEF2417F8A613
:10058F001B0FBF04005003020513751601C28B2207
:10059F00AF820000000000000000EF14FEFF70F2B9
:1005AF0022AF82BF01047582FE22BF02047582FD55
:1005BF0022BF04047582FB22BF08047582F722BF95
:1005CF0010047582EF22BF20047582DF22BF400422
:1005DF007582BF22BF800375827F22C2AFC2B27500
:1005EF00823212059FD2B275820612059FA2B2E423
:1005FF0033FF30B2FDD2AF8F8222AF82C2AF7E0106
:10060F00C2B20000EF5E7004C2B28002D2B2758235
:10061F0006C007C00612059FD006D007D2B28E05BE
:10062F00ED2DFE70DBD2AF22C2AF7F01C2B2000050
:10063F00D2B2000020B2108F82C0071205B0AE8276
:10064F00D007EE521C8003EF421C758206C00712C2
:10065F00059FD0078F06EE2EFF70D1D2AF851C827B
:10066F00221205EAE582FE70107582CCC0061206D2
:10067F0009758244120609D006EE700475820122B4
:10068F0075820022AD82AE83AFF0C007C006C005F1
:10069F001205EAAC82D005D006D007ECFB704D7581
:1006AF0082CCC007C006C005C0031206097582BE02
:1006BF00120609120637AC82D003C004C00312061B
:1006CF0037AA82D003D004D005D006D0078A01897B
:1006DF000279008C007C00E829F9EC3AFA8D828EC1
:1006EF00838FF0E9120817A3EA120817EB7004754D
:1006FF00820122758200227A10E4FBFCE58225E05C
:10070F00F582E58333F583EB33FBEC33FCEB95227A
:10071F00F5F0EC95234006FCABF0438201DADD22C5
:10072F00F9E52245234524452560777800C308E580
:10073F002520E73BE52225E0F522E52333F523E5E8
:10074F002433F524E52533F525E5829522E58395B8
:10075F0023E5F09524E9952550D4C3E52513F52518
:10076F00E52413F524E52313F523E52213F522E5FC
:10077F00829522FCE5839523FDE5F09524FEE9950E
:10078F00254007F98EF08D838C82C3E52513F5255F
:10079F00E52413F524E52313F523E52213F522D8D9
:1007AF00CEE922FB7A20E4FCFDFEFFE5822582F5EF
:1007BF0082E58333F583E5F033F5F0EB33FB401738
:1007CF00DAE98042E5822582F582E58333F583E518
:1007DF00F033F5F0EB33FBEC33FCED33FDEE33FE92
:1007EF00EF33FFEC9522ED9523EE9524EF95254001
:1007FF0013EC9522FCED9523FDEE9524FEEF952548
:08080F00FF438201DABEEB2277
:06004000E478FFF6D8FD94
:10001E007900E94400601B7A00900A10780175A0FF
:10002E0000E493F2A308B8000205A0D9F4DAF27541
:02003E00A0FF21
:1008170020F71130F6138883A88220F509F6A883FC
:100827007583002280FEF280F5F022E522452360E1
:10083700467A01E52225E0F522E523334012F52328
:10084700E5829522E583952340030A80E6C3E523E5
:1008570013F523E52213F522C3E5829522F5F0E58A
:100867008395234005F58385F082C3E52313F5239C
:10087700E52213F522DAE122AAF0FBE5828522F0D0
:10088700A4FCADF0E5838522F0A42DFDE435F0FE50
:10089700E5828523F0A42DFDE5F03EFEE433FFEA73
:1008A7008522F0A42EFEE5F03FFFE5838523F0A423
:1008B7002EFEE5F03FFFE5828524F0A42EFEE5F04D
:1008C7003FFFEB8522F0A42FFFEA8523F0A42FFF3B
:1008D700E5838524F0A42FFFE5828525F0A42F8EDC
:0608E700F08D838C8222DB
:100046007800E84400600A790175A000E4F309D855
:10005600FC7800E84400600C7900900001E4F0A30D
:04006600D8FCD9FAEF
:1008ED00F9C2D530E715D2D5E4C39582F582E495EA
:1008FD0083F583E495F0F5F0E499F9E52530E715F6
:10090D00E4C39522F522E49523F523E49524F524FB
:10091D00E49525F525E912072F30D512E4C395820C
:10092D00F582E49583F583E495F0F5F0E49922FBE7
:10093D00C2D530E715D2D5E4C39582F582E495830F
:10094D00F583E495F0F5F0E49BFBE52530E717B270
:10095D00D5E4C39522F522E49523F523E49524F5FA
:10096D0024E49525F525EB1207B230D513FBE4C32E
:10097D009582F582E49583F583E495F0F5F0E49B9B
:01098D002247
:0D0011007581251209FCE582600302000ED6
:10098E00C2D5E58330E70DD2D5E4C39582F582E476
:10099E009583F583E52330E70BE4C39522F522E436
:1009AE009523F52312083230D50BE4C39582F582D8
:1009BE00E49583F58322C2D5E58330E70DD2D5E4E5
:1009CE00C39582F582E49583F583E52330E70DB276
:1009DE00D5E4C39522F522E49523F52312070630BC
:1009EE00D50BE4C39582F582E49583F58322758257
:0209FE000022D5
:00000001FF
